:100000000C9475040C945B310C94AD040C94AD0409
:100010000C94AD040C94AD040C94AD040C94AD049C
:100020000C94AD040C94AD040C9492290C944E29BC
:100030000C94E52A0C94AD040C94AD040C94AD041E
:100040000C94AD040C94AD040C94AD040C94AD046C
:100050000C94AD040C94C12A0C94AD040C94AD0422
:100060000C94AD040C94AD040C94AD040C94AD044C
:100070000C94AD040C94AD040C94AD040C94AD043C
:100080000C94AD040C94AD040C94AD040C94AD042C
:100090000C94AD040C94AD040C94AD040C94AD041C
:1000A0000C94AD040C94AD040C94AD040631FF091E
:1000B00074A1010975150026FF00952075088102BD
:1000C0000976150026FF00952075089102C00501EC
:1000D0000902A10185020901A100050919012908E8
:1000E00015002501950875018102050109300931C6
:1000F0001581257F95027508810609381581257FB0
:10010000950175088106050C0A38021581257F9531
:100110000175088106C0C005010980A10185031988
:10012000012AB700150126B700950175108100C09E
:10013000050C0901A101850419012AA00215012657
:10014000A002950175108100C005010906A10105F5
:100150000719E029E7150025019508750181029529
:1001600001750881010507190029FF150026FF0008
:100170009506750881000508190129059505750181
:100180009102950175039101C0726762206D6174DF
:1001900072697820746F67676C65205B25735D3AC0
:1001A000207267625F6D61747269785F636F6E66FB
:1001B00069672E656E61626C65203D2025750A00B9
:1001C00044454255473A2064697361626C65642E08
:1001D0000A0044454255473A20656E61626C656489
:1001E0002E0A004F6E6573686F743A2061637469FC
:1001F00076653A2025640A000A002530325820002E
:100200006B6579626F6172645F7265706F72743A68
:10021000200029001E001F002000210022002B00CA
:1002200014001A00080015001700E0000400160072
:10023000070009000A00E1001D001B00060019006C
:10024000050000000000E3002C41E200280000004F
:100250002700260025002400230028001300120098
:100260000C0018001C00340033000F000E000D00BD
:100270000B00E500380037003600100011000000C8
:1002800000004C342A42C1523D0035001E021F02BC
:1002900020022102220201002E002B132B012D022D
:1002A0002D0039215000510052004F002A0001005A
:1002B000C4520000000065004C0000000000010076
:1002C000010001000100000027022602250224028D
:1002D00023020100D900D200CD00D1002E02460039
:1002E000DA00D000CE00CF00D300010031000000C2
:1002F00000000000000000000000010001000100FB
:10030000010045003A003B003C003D003E0001007A
:10031000AA00A900AE00A800000001002F002F02D3
:100320003002300000000100000026022702000019
:100330000000000000000100010001000100440075
:1003400043004200410040003F0001004B004D00CF
:1003500052004A00000000004E004F0051005000C3
:1003600000000100310000004600650000000000B0
:100370000000010001000100010029001E001F0013
:1003800020002100220001000000010052000100B5
:1003900001000100D900500051004F004B00010046
:1003A000DA000000000000004E0000000000010024
:1003B000010001000052010000002B112B13D90095
:1003C000287800004B0000005200DA0027782178DE
:1003D0004E004F00510050002378227800000000AA
:1003E0002B78207824780000000001000100010033
:1003F000005229001E001F002000210022002B00B7
:10040000170014001A0008001500E000E1000400C5
:100410001600070009000A0001001B000600190071
:10042000050000000000E300E2002C00005203522F
:1004300027002600250024002300280013001200B6
:100440000C0018001C00340033000F000E000D00DB
:100450000B00E500380037003600100011000000E6
:1004600000004C002A42C152005254617267657408
:1004700020636F6E6E65637465640D0A005461726B
:1004800067657420646973636F6E6E656374656419
:100490002C207468726F74746C696E6720636F6E61
:1004A0006E656374696F6E20617474656D707473CA
:1004B0000D0A004661696C656420746F206578657B
:1004C000637574652025730A007267625F6D6174DD
:1004D0007269785F636F6E6669672E666C616773B9
:1004E000203D2025640A007267625F6D6174726945
:1004F000785F636F6E6669672E7370656564203D13
:100500002025640A007267625F6D61747269785FAA
:10051000636F6E6669672E6873762E76203D2025A0
:10052000640A007267625F6D61747269785F636FFD
:100530006E6669672E6873762E73203D2025640AE7
:10054000007267625F6D61747269785F636F6E6677
:1005500069672E6873762E68203D2025640A007234
:1005600067625F6D61747269785F636F6E666967F9
:100570002E6D6F6465203D2025640A007267625FFE
:100580006D61747269785F636F6E6669672E656E00
:1005900061626C65203D2025640A007267625F6DB0
:1005A00061747269785F636F6E6669672045455054
:1005B000524F4D0A007267625F6D61747269785FB5
:1005C000696E69745F6472697665727320726762BE
:1005D0005F6D61747269785F636F6E6669672E6DB7
:1005E0006F6465203D20302E205772697465206449
:1005F000656661756C742076616C75657320746FC7
:1006000020454550524F4D2E0A007267625F6D6162
:10061000747269785F696E69745F64726976657215
:1006200073206565636F6E666967206973206E6FFE
:100630007420656E61626C65642E0A005B735D00F8
:100640000A0025303862003A200025303258000A6E
:10065000722F632030313233343536370A000A00C6
:1006600025303258006C65645F7461736B3A20000A
:10067000290A002575002F002575005D28002564D6
:10068000002000256400200025640020002564006F
:100690007C0025303258006D6F7573656B6579206D
:1006A0005B62746E7C782079207620685D287265A4
:1006B000702F61636C293A205B0000010101010188
:1006C000010101010202020202020202020303030B
:1006D00003030303030404040404040405050505DB
:1006E000050606060606070707070708080808099B
:1006F0000909090A0A0A0B0B0B0C0C0C0D0D0D0E47
:100700000E0E0F0F0F1010111111121213131414DB
:10071000151516161717181819191A1A1B1B1C1D50
:100720001D1E1E1F202021222223242425262627A9
:100730002829292A2B2C2D2D2E2F303132323334DB
:1007400035363738393A3B3C3D3E3F4041424344E1
:1007500045464748494A4C4D4E4F505153545556C3
:1007600058595A5B5D5E5F616264656668696B6C6F
:100770006D6F7072737577787A7B7D7E80828385EA
:1007800087888A8C8E8F91939596989A9C9EA0A22A
:10079000A3A5A7A9ABADAFB1B3B5B7BABCBEC0C234
:1007A000C4C6C9CBCDCFD1D4D6D8DBDDDFE2E4E7F8
:1007B000E9EBEEF0F3F5F8FAFDFF6565636F6E6641
:1007C00069675F7570646174655F7267625F6D61B0
:1007D000747269785F64656661756C740A005B4366
:1007E0005D005B445D005B535D005B575D005B52E9
:1007F0005D0009025B00030100A0FA09040000018A
:1008000003010100092111010001224000070581B7
:10081000030800010904010001030000000921117F
:10082000010001227B000705820320000109040268
:10083000000203000000092111010001222200072B
:1008400005830320000107050303200001120100B6
:10085000020000000810CB567200070102000118C8
:1008600003490072006900730020005200650076A1
:10087000002E002000370000000E034B00650065CD
:1008800000620069006F00000004030904726762DF
:10089000206D61747269782073657420737065656A
:1008A00064205B25735D3A2025750A00726762201B
:1008B0006D61747269782073657420687376205B4B
:1008C00025735D3A2025752C25752C25750A007237
:1008D0006762206D6174726978206D6F6465205B5A
:1008E00025735D3A2025750A000011241FBECFEF45
:1008F000DAE0DEBFCDBF04B603FE18C080914D051F
:1009000090914E05A0914F05B09150058730904BC6
:10091000A740B04B59F410924D0510924E0510921D
:100920004F0510925005E0E0F8E3099512E0A0E0D1
:10093000B1E0E0E1F8E602C005900D92AA3FB107F0
:10094000D9F725E0AAEFB2E001C01D92AD34B2079D
:10095000E1F70E940C2B0C9491330C940000FF9350
:10096000EF93E091FA02F091FB02309709F00995BC
:10097000EF91FF910895FC018591803011F0EFDF38
:10098000FBCF0895FF27E0E230E247FF0CC041951E
:1009900097FF09C0EDE26095709580959095611D77
:1009A000711D811D911D27FF02C0219530E350E28A
:1009B000AA27660F771F881F991FAA1FA41710F078
:1009C000A41B63955A95A9F7AA3008F0A95FA05D0A
:1009D000AF93F395611571058105910541F7ED32EE
:1009E00011F4EF93F395F21718F43F93F395FBCFBF
:1009F0008F91B5DFFA95E1F70895E991F991859125
:100A0000803021F0853219F0AADFF9CF089520E077
:100A1000E89455915532C1F3503311F468945591CF
:100A20005A3348F4505390F3220F022E220F220F14
:100A3000200D250FF4CF0EF421958991999153360D
:100A400019F3533729F1533559F1BC0188279927F8
:100A5000E8945C3621F489919991689455915436C3
:100A600039F446EF7EF077FF0DC08FEF9FEF0AC09D
:100A700055374AE039F0583540E121F0523642E02E
:100A800009F00895FF93EF937DDFEF91FF91B7CFCA
:100A9000FF93EF93FC0181918030B9F360DFFBCFCE
:100AA000FF93EF9368DFF1CFDF93CF93CDB7DEB73E
:100AB0002596A3DFCF91DF910895482F209112054D
:100AC0009091D90457E0291302C080E0089530E0E6
:100AD000529FF001539FF00D1124E652FB4F81818C
:100AE000681306C08081481303C085818111EECF51
:100AF0002F5F3F4F2770E7CFE8EDF0E080818E7FDA
:100B000080831092E2001092DA001092E100A0EED1
:100B1000B0E08C9181608C9380818F77808319BC49
:100B2000A7EDB0E08C918E7F8C9380818F7E808347
:100B30001092C20408952091E4003091E50095E6FA
:100B4000A9012091EC00822F817020FF06C08091C6
:100B5000E80080FF06C080E008952091E80022FDB3
:100B60001AC08091CF04882389F0853089F0809164
:100B7000EB0085FD0FC02091E4003091E5004217A5
:100B80005307F9F29150E1F684E0089582E0089568
:100B900083E0089581E008958091D10487FF13C018
:100BA0008091E80082FF06C08091E8008B778093F7
:100BB000E80004C08091CF048111F2CF08958091A4
:100BC000CF048823D9F38091E80080FFF8CF80918B
:100BD000E8008E77ECCF982F9093E900242F762FA2
:100BE00050E0891731F07091EC002091ED005091A8
:100BF000F00021FD07C09F5F973071F78093E900F7
:100C000081E008953091EB003E7F3093EB0030910E
:100C1000ED003D7F3093ED003091EB00316030937B
:100C2000EB007093EC002093ED005093F0002091C6
:100C3000EE0027FDE0CF80E00895B0E0A0E0E3E221
:100C4000F6E00C948132C8EDD0E088818F7E8883F5
:100C5000E7EDF0E080818160808384E082BF81E005
:100C60008093C20488818E7F888302EE10E0F801B1
:100C700010821092DA0081EEC82ED12CF60110827B
:100C800088818F77888388818068888388818F7D39
:100C9000888319BC1092CF041092D0041092CE0415
:100CA0001092CD0490EEE92EF12CF70180818B7F1C
:100CB000808388818160888342E060E080E00E94D8
:100CC000EB05F60180818E7F8083F8018081816051
:100CD0008083808188608083F70180818E7F80831C
:100CE000888180618883CDB7DEB7E8E00C949D32BF
:100CF000FC018091D7049091D80486179707A0F043
:100D00006115710529F49091E8009E779093E800B1
:100D100090E06115710551F4911108C08091E800CF
:100D200082FF34C080E00895BC01F2CF8091CF04EF
:100D30008823C1F18530C1F18091E80083FD30C086
:100D40008091E80082FDEACF8091E80080FFE1CF4A
:100D50008091F3002091F200382F6115710519F090
:100D60002830310558F091E02830310509F090E045
:100D70002091E8002E772093E800CBCF81918093DB
:100D8000F100615071092F5F3F4FE7CF8091CF0491
:100D9000882341F0853041F08091E80083FFBECF89
:100DA00081E0089582E0089583E008958091C4046D
:100DB00008959C014FB7F8948091BB049091BC04B6
:100DC000A091BD04B091BE044FBF821B930B089548
:100DD0002FB7F8946091BB047091BC048091BD045E
:100DE0009091BE042FBF08952FB7F8948091BB0453
:100DF0009091BC04A091BD04B091BE042FBF089592
:100E00009C01FC0132969FEF80E04191461751F022
:100E10009F3F19F4411101C0982F8F5F8630A9F7C9
:100E20009F3F09F40895290F311D97FD3A95F90167
:100E300062830895A3E0B0E0E0E2F7E00C9487322B
:100E40002091B8043091B90428173907A1F0909384
:100E5000B9048093B804E091B604F091B7043097D8
:100E600051F024E029839B838A830680F781E02D5B
:100E7000CE01019609952396E2E00C94A332A3E0FB
:100E8000B0E0E5E4F7E00C9487322091B4043091AF
:100E9000B50428173907A1F09093B5048093B404E2
:100EA000E091B604F091B704309751F023E0298324
:100EB0009B838A830680F781E02DCE0101960995F8
:100EC0002396E2E00C94A332FC01680F791F8FEFA8
:100ED00091E32191822728E030E087FF09C0880F45
:100EE000892721503109C9F7E617F70791F70895C7
:100EF000880FF7CFFA01811101C0FB010995089510
:100F000080934501809145058370809344010E9440
:100F10009F1783E080934A010895EF92FF920F9309
:100F20009701201B31092F3F310519F010F02FEFE9
:100F300030E0322F3095482F430F08F44FEF842FC5
:100F4000620F0F91FF90EF900895EF92FF920F9331
:100F5000972F093438F4B701601B71096F3F710591
:100F600019F010F06FEF70E0485F5F4F41315105AD
:100F700040F0A901485F5F4F4131510510F06FEF1C
:100F800070E06095482F460F08F44FEF842F37FF2D
:100F900002C02D5F3F4F3595279535952795609178
:100FA0004605620F792F0F91FF90EF900895EF9211
:100FB000FF920F931F930E0D1F2D111DF90137FF87
:100FC00003C0F195E195F10924E0EE0FFF1F2A958A
:100FD000E1F7EF3FF10519F014F0EFEFF0E09A01BF
:100FE00057FF03C031952195310994E0220F331F3B
:100FF0009A95E1F72E173F070CF4F901E00FF11F66
:10100000EF3FF10519F010F0EFEFF0E0E095282F39
:101010003E2F230F08F42FEF822F1F910F91FF9087
:10102000EF900895EF92FF920F93970195E0099F3B
:10103000200D311D11242F3F310519F010F02FEF35
:1010400030E02095382F320F08F43FEF832F0F91B7
:10105000FF90EF90089522E8241B08F420E0620F2F
:1010600008954095282F429F412D1124842F0895E3
:101070000F931F9310E0F801EE0FFF1FE35DFD4F8C
:101080009081905797FD9195000F111FF801EF5037
:10109000FE4F05AD0052110B2003F001219FF00D12
:1010A000112408E310E0091B110997FD1395400373
:1010B0009001419F300D1124E20FF31F9F01220F79
:1010C000331F2E0F3F1F37FF02C021583F4F220F03
:1010D000232F221F330B620F1F910F9108950F933F
:1010E0001F93522F10E0F801EE0FFF1FEF50FE4F3D
:1010F000A5ADA052BB0B9D015203F001539FF00D13
:101100001124000F111FD801A35DBD4F0C91005792
:10111000110B40039001419F300D11242E0F3F1FF2
:1011200037FF02C0215C3F4F96E0359527959A9591
:10113000E1F7620F1F910F9108950F931F93522FA4
:1011400010E0F801EE0FFF1FEF50FE4FA5ADA052CB
:10115000BB0B9D015203F001539FF00D1124000FB2
:10116000111FD801A35DBD4F0C910057110B400317
:101170009001419F300D11242E0F3F1F37FF02C0F9
:1011800021583F4F220F232F221F330B620F1F9135
:101190000F910895EF920F93972F23E0029FB001D4
:1011A0001124759567956E0D792F0F91EF90089525
:1011B000322F50E0FA01EE0FFF1FEF50FE4F95ADBA
:1011C000905297FD9195440F551FFA01E35DFD4F35
:1011D0002081231B330B290F311D97FD3A95620F98
:1011E0000895E42FF0E0EE0FFF1FEF50FE4F65ADC6
:1011F000621B0895E42FF0E0EE0FFF1FE35DFD4F4B
:101200006081621B0895622F0895E42FF0E0EE0FD5
:10121000FF1FE35DFD4F408134EE439F412D1124BC
:10122000E82FF0E050E0445E5F4FDA01A21BB10905
:101230009D01B7FF03C031952195310993E0220F3D
:10124000331F9A95E1F7AF01421B530B9A0157FDEB
:1012500020E0582F259F212D1124822F0895E42F5F
:10126000F0E0EE0FFF1FE35DFD4F408134EE439F42
:10127000412D1124E72FF0E050E0445E5F4FDA018A
:10128000A21BB1099D01B7FF03C03195219531091A
:1012900093E0220F331F9A95E1F7AF01421B530BE6
:1012A0009A0157FD20E0279F212D1124722F0895C8
:1012B0000E94A20B0895FF920F931F93CF93DF9389
:1012C000182F062FF42ED0E0C0E02F2D402F612FD5
:1012D000CE010E9458092196C434D105B1F7CDB78B
:1012E000DEB7E5E00C94A032FC019B01009729F4E5
:1012F00080E077FF2BC080E80895AC0197FF04C021
:1013000044275527481B590BB901640F751F37FD3A
:1013100010C0241B350BC901A5E0880F991FAA95A1
:10132000E1F70E94CE3280E2861BF7FF0FC0819565
:101330000895CB0165E0880F991F6A95E1F7BA011E
:10134000621B730B0E94CE3280E6EECF0895EF92BF
:101350000F93CF93DF93D72FC82FC9010E19BA016E
:101360000E947409602F681B7D2F8C2FDF91CF9115
:101370000F91EF9008950F93CF93DF93D72FC82F3E
:10138000C901BA010E947409682F600F7D2F8C2F4C
:10139000DF91CF910F910895EF920F931F93CF9309
:1013A000DF93D62FC72F182FC9010E19010FBA01CD
:1013B0000E947409081B202F219F212D1124822FA8
:1013C0006D2F7C2FDF91CF911F910F91EF9008959A
:1013D000EF920F931F93CF93DF93D62F172FC82F22
:1013E000C9010E19070FBA010E947409702F781BEA
:1013F000719F712D11246D2F8C2FDF91CF911F9133
:101400000F91EF9008950F931F93CF93DF93D62FF3
:10141000C72F182FC901212F201B022FBA010E94AC
:101420007409982F990F990F891B800F282F219FDE
:10143000212D1124822F6D2F7C2FDF91CF911F91B1
:101440000F9108950F931F93CF93DF93D62F172FEC
:10145000C82FC901272F201B022FBA010E9474092F
:10146000982F990F990F782F791B700F719F712DFD
:1014700011246D2F8C2FDF91CF911F910F91089523
:10148000E82F86FDE0952E2F2F7086FD2F5FE695C5
:10149000E695E695E670F0E0E652FE4F9181929F68
:1014A000902D212D112492959F702295207F922BB3
:1014B0002081920F87FD919580E8890F0895AC01F6
:1014C0008230910508F408959FEF413E8EE1580760
:1014D00040F49A0195E0369527959A95E1F798E0C2
:1014E000920F61E0E62FE90FFF27FF1F9F0135955F
:1014F0002795822F229FF001239FF00DF00D1124DC
:101500004E175F0738F49FEF920F961758F78FEF3B
:10151000860F08952F3FE9F361E0620FF6CF0F9336
:10152000CF93DF93D72FC82F47FD419588E390E0F5
:10153000841B910947FD9395889FB001899F700D89
:10154000700D1124229FC001239F900D900D112436
:10155000860F971F0E945F0A982F990F890F682F97
:10156000600F7D2F8C2FDF91CF910F91089530E088
:1015700020E0869F212D969F200D311D1124C90149
:101580000895AF92BF92CF92DF92FF920F931F9375
:10159000CF93DF93362F472FE82FF0E0E654F94F33
:1015A00071110FC0E4918E2F2E2F6E2F722FDF91AD
:1015B000CF911F910F91FF90DF90CF90BF90AF9090
:1015C0000895C72FD0E02491F22E022F10E056E0AC
:1015D000659FC0011124EFEFF0E0BF010E94BA3215
:1015E000832F90E0880F991F35E5369FD001379FF4
:1015F000B00D11248A1B9B0B982F990F980F6F0128
:10160000CC1ADD0AC09ED001C19EB00DD09EB00D97
:1016100011248B2F499FA0011124452F55276F01BD
:10162000C41AD50AC09EA001C19E500DD09E500D77
:1016300011245F01A91AB108AC9E6001AD9ED00CC7
:10164000BC9ED00C1124CD2CDD24EC19FD09E09FAB
:10165000E001E19FD00DF09FD00D1124ED2F6230FD
:101660007105A1F050F46115710509F49ECF613048
:10167000710581F0EB2F852F98CF6430710569F0EB
:1016800080F06630710509F490CFF4CFE22F2B2F54
:101690008D2F8BCFE22F252F88CFEB2F822F2D2F51
:1016A00084CF2B2F8F2DE52F80CF8091AE0380FD2F
:1016B00016C081FD16C082FD16C08091AD0388233F
:1016C000A1F0883280F428E0829FC001112468E2F2
:1016D00070E00E94CE32862F672B39F0089582E0A9
:1016E000089584E0089588E0089581E00895809148
:1016F000AE0380FD17C081FD17C082FD17C0209189
:10170000AF032223A9F080E32034A0F4289F9001A6
:10171000112486E0359527958A95E1F7822F232BB2
:1017200051F008958CE0089588E1089580E30895CC
:1017300088E00895089581E0089589B185FB8827A0
:1017400080F90895FF920F931F93CF93DF93EC01DD
:10175000F62E042F122F0E949D0B81110FC0C23252
:10176000D1057CF0A297FE01EE0FFF1FEC0FFD1FCD
:10177000E851FC4FF1820083128303C0C232D105CD
:1017800094F3CDB7DEB7E5E00C94A032CF93C82F29
:101790000E949D0B882329F081E0C23228F080E06E
:1017A00003C081E0C434D8F7CF910895A8E0B0E039
:1017B000ECEDFBE00C947732282E7C836B83209138
:1017C00047018EE0289F802D11248D83825F8983BD
:1017D000853410F034E439830E949D0B882329F06E
:1017E0008981833210F092E299830E949D0B8111CE
:1017F00005C0ED81E23210F4F2E2FD83209117057D
:101800002A839D81892F90E098878F83880F991F65
:10181000FC01EF50FE4F6F01822D90E09C012F5F85
:101820003F4F3E832D8389819F81981730F00E941E
:10183000C60B2896E2E10C949332EF81F885EB54C5
:10184000FD4F8081909148018923F9F03090460541
:10185000409047058D819E81895E9A4F3C01522CB4
:1018600010E0FA815F16D8F020914805129F112DE3
:101870001124632D742D812F0E94C10A462F282F19
:10188000672F8F8198850E9458092F8138852F5F97
:101890003F4F38872F8332E0C30ED11CC4CFF301F2
:1018A00081913F01F601A4ACA81ABB0885ACF301F5
:1018B0008781881A9908AA9C9001AB9C300D300D45
:1018C0001124889CC001899C900D900D1124820FD9
:1018D000931F0E945F0A082F6091490521E0620F63
:1018E00008F46FEFF301EE0FFF1FE751F540858914
:1018F00096890E94B70A7C019401A501632D742D7D
:10190000812FEB81FC810995362E472E5394182F99
:10191000A8CFB0E0A0E0EFE8FCE00C9481327C01BD
:10192000C09147018EE0C89FC02D11241EE01C0FFE
:10193000153408F014E40E949D0B882319F013322B
:1019400008F012E20E949D0B811103C0C23208F41C
:10195000C2E22091490531E0230F08F42FEF30E077
:1019600050E040E06FEF7FEF80E090E00E94E232D5
:101970006901D0E001E02C2FC11740F0812F0E94B7
:10198000C60BCDB7DEB7E8E00C949D32FE01EB54F8
:10199000FD4F808190914801892309F140911705FD
:1019A0004150042E000C550B47FF1BC0C60160912F
:1019B0004905600F08F46FEF0E94B70AAC0160910F
:1019C00046057091470580914805F70109950E94E9
:1019D000C10A462F282F672FCE010E945809219651
:1019E000CACFFA01E95EFA4F818982130AC0FA016F
:1019F000EE0FFF1FE95EFA4F818D928D8C159D05CC
:101A0000B0F241505109D0CFB0E0A0E0EAE0FDE0F3
:101A10000C947F326C01C09147018EE0C89FC02DAD
:101A200011241EE01C0F153408F014E40E949D0BD5
:101A3000882319F0133208F012E20E949D0B8111E5
:101A400003C0C23208F4C2E260914905669566950A
:101A500080911305909114050E94B70AF82E80E436
:101A60008F0D0E94400A90E8B92EB80E8F2D0E946B
:101A7000400A20E8A22EA80ED0E0C11740F0812F26
:101A80000E94C60BCDB7DEB7EAE00C949B32FE0194
:101A9000EB54FD4F8081909148018923A1F0609122
:101AA00046057091470580914805EF2C0C2F2A2D93
:101AB0004B2DF60109950E94C10A462F282F672F4A
:101AC000CE010E9458092196D8CFB0E0A0E0EBE605
:101AD000FDE00C947B325C01C09147018EE0C89F11
:101AE000C02D11241EE01C0F153408F014E40E94D0
:101AF0009D0B882319F0133208F012E20E949D0B0F
:101B0000811103C0C23208F4C2E2609149056695B2
:101B100080911305909114050E94B70AF82ED0E029
:101B2000CE01880F991F9C012F503E4F6901C117AC
:101B300040F0812F0E94C60BCDB7DEB7EEE00C94CB
:101B40009732FE01EB54FD4F80819091480189232B
:101B500079F1F60184AD282F2057330B490185AD6B
:101B6000E82FE052FF0B3F01889C9001899C300DCB
:101B7000300D1124EE9FC001EF9F900D900D1124A8
:101B8000820F931F0E945F0A082F60914605709193
:101B9000470580914805EF2C9301A401F5010995B3
:101BA0000E94C10A462F282F672FCE010E94580994
:101BB000F2E0CF0ED11C2196BACFB0E0A0E0E3EE68
:101BC000FDE00C9480326C01C09147018EE0C89F0B
:101BD000C02D11241EE01C0F153408F014E40E94DF
:101BE0009D0B882319F0133208F012E20E949D0B1E
:101BF000811103C0C23208F4C2E2609149056695C2
:101C000080911305909114050E94B70AB82ED0E078
:101C1000CE01880F991F9C012F503E4F7901C117AB
:101C200040F0812F0E94C60BCDB7DEB7E9E00C94DF
:101C30009C32FE01EB54FD4F808190914801892335
:101C4000C1F0F70125AD2052330B44AD4057550B81
:101C50006091460570914705809148050B2DF6016E
:101C600009950E94C10A462F282F672FCE010E9496
:101C70005809F2E0EF0EF11C2196D1CFEF92FF92BE
:101C80000F931F93CF93DF937C01C09147018EE0A8
:101C9000C89FC02D11241EE01C0F153408F014E459
:101CA0000E949D0B882319F0133208F012E20E9463
:101CB0009D0B811103C0C23208F4C2E26091490554
:101CC0006695669521E0620F08F46FEF8091130529
:101CD000909114050E94B70A082FD0E0C11740F078
:101CE000812F0E94C60BCDB7DEB7E6E00C949F3281
:101CF000FE01EB54FD4F808190914801892391F0C2
:101D0000609146057091470580914805202F4C2F22
:101D1000F70109950E94C10A462F282F672FCE018F
:101D20000E9458092196DACFB0E0A0E0EAE9FEE08F
:101D30000C947F32182F80914501811323C090911C
:101D4000450593702091440130E081E0921713061D
:101D500009F480E081708093490180914A05909157
:101D60004801981739F08093480140E060E080E036
:101D70000E945B09113288F4E12FF0E0ED56FC4C33
:101D80000C94013381E0E6CF80914901882389F1E9
:101D900040E060E080E00E945B0980E02AC0C091E2
:101DA00047018EE0C89FC02D11240EE00C0F0534B2
:101DB00008F004E40E949D0B882319F0033208F018
:101DC00002E20E949D0B811103C0C23208F4C2E2FC
:101DD0006091460570914705809148050E94C10AAF
:101DE000F62EE72ED82ED0E0C017D8F0802F0E9414
:101DF000C60B909147019F5F9093470181110CC0E2
:101E000082E080934A0180914901811105C011113E
:101E100003C083E080934A01CDB7DEB7EAE00C94BB
:101E20009B32FE01EB54FD4F808190914801892344
:101E300031F02D2D4F2D6E2DCE010E945809219687
:101E4000D3CFC09147018EE0C89FC02D11240EE072
:101E50000C0F053408F004E40E949D0B882319F050
:101E6000033208F002E20E949D0B811103C0C232CE
:101E700008F4C2E2E0904705F0904805D09146058D
:101E80006D2F7E2D8F2D0E94C10AD62EC72EB82E03
:101E9000609149056D0F7E2D8F2D0E94C10AF62E8F
:101EA000E72EA82ED0E0C01708F0A0CFFE01EB541B
:101EB000FD4F908180914801892359F02A2D4F2DA3
:101EC0006E2D90FD03C02B2D4D2D6C2DCE010E944B
:101ED00058092196E8CFC09147018EE0C89FC02DD8
:101EE00011240EE00C0F053408F004E40E949D0B51
:101EF000882319F0033208F002E20E949D0B811141
:101F000003C0C23208F4C2E2E0904705D090480511
:101F10002091490550E4F52E3F2D329F312D11249B
:101F2000F32ED0E0C01708F061CFFE01EB54FD4F57
:101F30008081909148018923B9F0FE01EE0FFF1FC7
:101F4000EF50FE4F85AD82958F70609146058F9D55
:101F5000600D11247E2D8D2D0E94C10A462F282F41
:101F6000672FCE010E9458092196DCCFC09147010E
:101F70008EE0C89FC02D11240EE00C0F053408F030
:101F800004E40E949D0B882319F0033208F002E25A
:101F90000E949D0B811103C0C23208F4C2E2E0909E
:101FA0004705D09048052091490530E4F32E3F2D98
:101FB000329F312D1124F32ED0E0C01708F016CF38
:101FC000FE01EB54FD4F8081909148018923D9F0A7
:101FD000FE01EE0FFF1FEF50FE4F64ADF69EB00105
:101FE000112495E0759567959A95E1F780914605DE
:101FF000680F7E2D8D2D0E94C10A462F282F672F36
:10200000CE010E9458092196D8CFC09147018EE099
:10201000C89FC02D11240EE00C0F053408F004E415
:102020000E949D0B882319F0033208F002E20E94FF
:102030009D0B811103C0C23208F4C2E2F090460544
:10204000D0914705E09048056091490566956695F1
:10205000669580911305909114050E94B70A0E941D
:10206000400A805887FD8195880F282F3E2D239F99
:10207000212D1124822F6F2D7D2F0E94C10AF62E53
:10208000E72ED82ED0E0C01708F0B0CEFE01EB54FA
:10209000FD4F808190914801892331F02D2D4F2DE6
:1020A0006E2DCE010E9458092196EDCF8FE299E066
:1020B0000E943E0E9ECE85E099E0FACF82E29AE041
:1020C0000E94DD0D96CE83E09AE0FACF88EE99E08B
:1020D0000E94650D8ECE8CEC99E0FACF83E099E0FA
:1020E000E7CF8AEF98E0E4CF81EF98E0E1CF88ED89
:1020F00098E0DECF8AEC98E0EBCF8FE89AE0E0CF73
:102100008BEB99E0DDCF87EA99E0E2CF8DE998E0AB
:102110000E94040D6ECE8FE698E0FACF88E398E037
:10212000F7CF81E398E00E94890C63CE8BE298E0C0
:10213000FACF8091170521E0382F321B08F430E0E8
:10214000832F62E178E00E94D60B53CE62E178E003
:1021500080E0F9CF8091170521E0382F321B08F479
:1021600030E0832F67ED77E0EECF67ED77E0F0CFDB
:102170008091170521E0382F321B08F430E0832FBF
:1021800065EA77E0E0CF65EA77E0E2CF8091170576
:1021900021E0382F321B08F430E0832F6DE877E020
:1021A000D2CF6DE877E0D4CFF894E82FE295EF70C6
:1021B000F0E031A1282F2F7081E090E001C0880F5E
:1021C0002A95EAF7982F9095932391A392A1892BB2
:1021D00082A3789408959091880392FF06C0282FD7
:1021E00028712830F9F4877F846093FF06C0282F78
:1021F00028712831F1F4877E84612091890320FFC2
:1022000006C0382F38713830D9F4877F816021FFBC
:1022100006C0282F28712831D1F4877E816194FD72
:10222000877E0895282F24712430F9F68B7F8860EB
:10223000DCCF282F2471243101F78B7E8861DDCF1C
:10224000382F3171313019F78E7F8860E0CF282F19
:102250002171213121F78E7E8861E1CF823891058D
:10226000B9F1B0F48133910509F47DC048F48932A5
:10227000910509F46DC08A32910509F47BC0089577
:102280008533910509F45FC08933910509F10895FB
:10229000833E9105D9F138F4803E910529F1823EC3
:1022A000910579F10895863E9105D9F1873E910512
:1022B00009F43EC0843E910541F52091890321FF38
:1022C00024C08091880384FD19C087EE90E00895B2
:1022D00020918803237009F05AC02091890323FFBD
:1022E00014C089E290E008952091880320FD38C051
:1022F0003091890330FF09C024FF43C090E080E0A3
:1023000008952091880322FDF7CF08952091880336
:1023100022FD3AC03091890330FD39C024FFF5CF4A
:10232000EDCF2091880323FFF0CF24FDE7CFCDCF61
:102330002091880323FD2EC03091890331FFEECF19
:1023400084EE90E008952091880325FFDECFC9CF69
:102350002091880325FD21C02091890323FFD5CF3B
:1023600089E390E0D2CF2091880326FFCECF8AE286
:1023700090E008952091880326FFC7CF81E390E085
:10238000089583EE90E0089582EE90E0089580EE47
:1023900090E0089586EE90E0089585E390E008953A
:1023A000972F7A30B8F46630A8F48530B0F470E036
:1023B00026E0929F600D711D1124FB019CE3899F13
:1023C000E00DF11D1124EE0FFF1FEE5EFD4F859114
:1023D0009491089580E090E0089581E0FCCF1F93F0
:1023E000CF93DF930E942E11EC01C11580E5D80731
:1023F000F0F5C11580E4D80708F09CC0C03ED105B7
:1024000020F5CD3CD10508F082C0C83AD10578F45A
:10241000C53AD10508F073C0C130D10519F1209734
:1024200009F1C430D105F0F4D0E0C0E01BC0C33CDA
:10243000D105D0F7C85AD0E0CC0FDD1FC257DE4F10
:102440000990D881C02DD4640DC0C11580E2D80791
:1024500008F0D1C0C11581E0D80708F05AC0C83EC5
:10246000D10510F7CE01DF91CF911F910895C036AD
:1024700082E5D80718F5C03482E5D80708F06BC0AC
:10248000C03282E5D80708F05FC0C11582E5D807E1
:1024900008F497C02C2F2695269580E2289F90015E
:1024A00011248C2F8370C1E0D0E002C0CC0FDD1F5F
:1024B0008A95E2F7C22BD32BDD68D4CFC03A82E5F0
:1024C000D80760F4C03882E5D80708F459C0CF7146
:1024D000D0E0DC2FCC27C46FD06AC4CFC03C82E5EB
:1024E000D80708F462C0C03E82E5D80708F09CCF48
:1024F000DC2FCC27CC27DF71C06FD06AB3CFC55A91
:10250000D0E0C557DE4FC881D0E0D064ABCFD065F6
:10251000A9CF8D2F0E94EB10182FCE0199270E9472
:102520002E11C12FD0E0DC2FCC27CC27DF71C82B98
:10253000D92B98CFCE0199270E942E11CC27DF707E
:10254000C82BD92BD06A8ECFCF71D0E0DC2FCC270F
:10255000C16FD06A87CF2C2F26952695277080E2F1
:10256000289F900111248C2F8370C1E0D0E002C01D
:10257000CC0FDD1F8A95E2F7C22BD32BDC6872CF1C
:102580002C2F26952695277080E2289F90011124F4
:102590008C2F8370C1E0D0E002C0CC0FDD1F8A9584
:1025A000E2F7C22BD32BDA685DCF8C2F8F710E949C
:1025B000EB10C82FD0E0DC2FCC27CC27DF71D06206
:1025C00051CF8C2F8F710E94EB1055E0D695C79597
:1025D0005A95E1F7CF70D0E0DC2FCC27282F30E0E0
:1025E00084FF05C044E0220F331F4A95E1F7C22B58
:1025F000D32BD06937CF8D2F8F710E94EB10182FFE
:10260000CE0199270E942E11C12FD0E0DC2FCC27BC
:10261000CC27DF71C82BD92BD2CF8095909138036E
:102620009823909338030895809112059091D904CE
:10263000981301C008958F5F8770FACFB0E0A0E0D3
:10264000E4E2F3E10C9480327C0100918603109166
:1026500087038091390390913A03082B192BCFE01F
:10266000D0E0CC24C394D12CBC2EC6010C2E02C0C9
:10267000880F991F0A94E2F780239123892B49F44C
:10268000219790F7B12C8B2DCDB7DEB7E9E00C94F4
:102690009C32B7018C2F0E94D0110E94EF1101973C
:1026A00079F3F1CFCF93DF93EC010E941E13BE01AB
:1026B0000E94D0110E94EF11DF91CF9108959A30BE
:1026C00078F5863068F5E82FF0E086E0989FE00D19
:1026D000F11D11249E2F977083E0F695E7958A955A
:1026E000E1F7EE0FFF1FEE0FFF1FEA5FFC4F50E018
:1026F00040E080E0219130E0092E02C03695279518
:102700000A94E2F721703327042E01C0220F0A94A5
:10271000EAF7822B4F5F5F4F4430510559F7089518
:1027200080E008959A3098F5863088F5E82FF0E03B
:1027300086E0989FE00DF11D11248E2F877041E0F7
:1027400001C0440F8A95EAF783E0F695E7958A95EC
:10275000E1F7EE0FFF1FEE0FFF1FEA5FFC4F30E0C7
:1027600020E070E05191DF011197CB01022E02C0F1
:10277000969587950A94E2F7817081958527842341
:1027800085278C932F5F3F4F2430310559F70895EB
:102790009093870380938603089521E030E002C080
:1027A000220F331F8A95E2F720953095809186039A
:1027B00090918703822393230E94C81308959091D8
:1027C0002D038095892380932D03282F277069F48A
:1027D000891759F09091890392FF07C086958695D5
:1027E00086950E94CD1310922D03089521E030E0CC
:1027F00002C0220F331F8A95E2F7809186039091E1
:102800008703822B932B0E94C813089590933A0359
:10281000809339030895FC0124812223C1F0808133
:1028200091810E94521392959F70963091F058F4C6
:10283000925F9F70923058F4803F19F030F4883ED8
:1028400030F481E008959A5FF4CF843FD1F380E0C3
:102850000895883EB0F3813FD1F7F3CF829590E0A1
:102860009C01220F331F220F331F2C7C95958795D7
:10287000959587958373282B30E0C901880F991FA0
:102880008A7A359527952575822B0895A6E0B0E0C4
:10289000ECE4F4E10C94863249835A8349815A81ED
:1028A0009923A1F0222391F0CA010E941E13182F30
:1028B000682F89819A810E94921369817A81812F80
:1028C0000E94D0112696E3E00C94A232CA010E9425
:1028D0005F13182FF2CF90914505937031F181115C
:1028E00025C094609093450510924A01809143055C
:1028F0008160809343058091440580FF16C08091DC
:102900004505869586951F928F9389E591E09F9363
:102910008F938FEC98E09F938F930E9454050F90B4
:102920000F900F900F900F900F900895813210F03C
:102930009068D8CF880F880F982BD4CF8091450509
:1029400086958695815009F480E20E946B14089563
:1029500080914505869586958F5F813208F081E0EC
:102960000E946B14089520914505237059F18093BE
:10297000460560934705493708F048E74093480506
:10298000209143052160209343052091440520FFB9
:1029900019C01F924F931F926F9399279F938F9304
:1029A00089E591E09F938F938CEA98E09F938F93B2
:1029B0000E9454058DB79EB70A960FB6F8949EBF35
:1029C0000FBE8DBF0895E5E4F5E0438120E1421B91
:1029D00008F440E08181628190E00E94B314089580
:1029E000E5E4F5E0438120E1420F08F44FEF8181F7
:1029F000628190E00E94B3140895E5E4F5E06281FD
:102A000020E1621B08F460E08181438190E00E9434
:102A1000B3140895E5E4F5E0628120E1620F08F463
:102A20006FEF8181438190E00E94B3140895E5E443
:102A3000F5E08181438162818850990B0E94B31433
:102A40000895E5E4F5E0818190E043816281089694
:102A50000E94B314089580934905909143059160B5
:102A6000909343059091440590FF12C01F928F935D
:102A700089E591E09F938F938DE898E09F938F93E2
:102A80000E9454050F900F900F900F900F900F9091
:102A900008958091490520E1382F321B08F430E079
:102AA000832F0E942B1508958091490520E1382F2E
:102AB000320F08F43FEF832F0E942B150895809169
:102AC000440583FF7EC087E996E00E94BB048091A5
:102AD000B5031F928F9382E996E09F938F930E9494
:102AE000540580E996E00E94BB048091B603282F2C
:102AF000082E000C330B3F938F938DE896E09F9345
:102B00008F930E9454058BE896E00E94BB0480914D
:102B1000B703282F082E000C330B3F938F9388E8C0
:102B200096E09F938F930E94540586E896E00E945A
:102B3000BB048091B803282F082E000C330B3F9361
:102B40008F9383E896E09F938F930E94540581E8CA
:102B500096E00E94BB048091B903282F082E000C38
:102B6000330B3F938F938EE796E09F938F930E9452
:102B700054058BE796E00E94BB048091AF031F923F
:102B80008F9388E796E09F938F930E94540586E782
:102B900096E00E94BB048091AE031F928F9383E75F
:102BA00096E09F938F930E94540580E796E00E94E1
:102BB000BB048DB79EB74C960FB6F8949EBF0FBE60
:102BC0008DBF0E94F4069C019091B6038091B703DB
:102BD000982B21F03093B3032093B2039091B80364
:102BE0008091B903982B21F03093B1032093B00367
:102BF000E091B604F091B704309749F082E08093F9
:102C0000B4030480F581E02D84EB93E009950895E9
:102C1000662309F45DC08D3C41F40E94770B8195D9
:102C20008093B7030E945F1508958E3C19F40E94AB
:102C3000770BF6CF8F3C31F40E94770B8195809310
:102C4000B603F0CF803D19F40E94770BF8CF893D91
:102C500029F40E94550B8093B803E4CF8A3D21F4F8
:102C60000E94550B8195F7CF8B3D31F40E94550B97
:102C700081958093B903D6CF8C3D19F40E94550BF2
:102C8000F8CF9FE2980F983070F4815D990B21E0A6
:102C900030E001C0220F8A95EAF78091B503822BBC
:102CA0008093B503BFCF8D3D31F48091AE03816039
:102CB0008093AE03B7CF8E3D21F48091AE03826046
:102CC000F7CF8F3D09F0AECF8091AE038460F0CF97
:102CD0004091B6038D3C59F48091B70387FF0DC036
:102CE0001092B70341110BC01092AF0308C08E3C85
:102CF00081F48091B70318169CF3442381F08091EE
:102D0000B8039091B903892B09F08CCF1092AD03D1
:102D100089CF8F3C49F447FFF0CF1092B6038091E2
:102D2000B7038111ECCFE0CF803D19F41416ACF35A
:102D3000E4CF9091B803893D29F41916F4F6109266
:102D4000B803DBCF8A3D19F497FFD7CFF8CF909126
:102D5000B9038B3D29F497FFD0CF1092B903CDCFA3
:102D60008C3D19F41916CCF3C8CF9FE2980F983018
:102D700090F4815D990B21E030E0B90102C0660F4B
:102D8000771F8A95E2F7CB0180959091B50389234F
:102D90008093B503B2CF8D3D31F48091AE038E7F29
:102DA0008093AE03AACF8E3D21F48091AE038D7F38
:102DB000F7CF8F3D09F0A1CF8091AE038B7FF0CF8D
:102DC0009FB7F8941092C0049FBF9091CF049430A5
:102DD00009F048C02091E9002F703091EC00932F4A
:102DE000917030FD90E8922B23E02093E900209130
:102DF000EB0020FF34C02091EE0027FF30C020916F
:102E0000BF04222321F02091E80025FF28C0109262
:102E1000BF0426E03091E80035FF14C08093F10034
:102E20008091E80085FD27C08091E80080FFFCCFFD
:102E30008091E8008E778093E8009F709093E9007E
:102E400080E008953091CF04343049F43091EB00A4
:102E500035FD05C0215041F481E08093BF049F708F
:102E60009093E9008FEF0895EFE9FFE03197F1F7D4
:102E700000C00000CFCF8FB7F89421E02093C004AA
:102E80008FBFDBCF0F931F93CF93DF938B01EA01AB
:102E90009091CF04943061F58093E9008FEF909189
:102EA000E800815095FD06C095ED9A95F1F7000078
:102EB0008111F5CF8091E80085FF1AC00E949B0523
:102EC000811111C08091E80085FD06C08091E80065
:102ED0008E778093E800F2CFF80181918F01809383
:102EE000F100219779F78091E8008E778093E800D0
:102EF000DF91CF911F910F91089543E050E0BC0105
:102F000082E00E944217089546E050E0BC0182E052
:102F10000E9442170895CF93DF93EC0148E050E000
:102F2000BC0181E00E94421788E0FE01A5ECB4E0FC
:102F300001900D928A95E1F7DF91CF9108956E9AF5
:102F40003EB13F7B2EB120644FB7F89488EE93E0FA
:102F5000FC015191CF0168E02EB9000000C057FF7D
:102F60003EB9550F000000C000C000C03EB900C00F
:102F70006A9591F7F4E0843B9F0751F74FBF8FE5C7
:102F800094E00197F1F700C000000895B0E0A0E0E0
:102F9000ECECF7E10C947C327C015B01842E752E05
:102FA00069018091480301E010E08A3010F40AE0E2
:102FB00010E0C1E0D0E0B501C701F6010995982EF7
:102FC000811114C021960C171D07B4F4809144059B
:102FD00080FF0CC07F928F9283EB94E09F938F933E
:102FE0000E9454050F900F900F900F90892DCDB730
:102FF000DEB7EDE00C949832CC9F9001CD9F300D60
:10300000300D112490E080E045E34A95F1F700008F
:10301000019628173907C1F7CECF80914703811158
:1030200010C08091D80080618093D8008AE18A9591
:10303000F1F700C08091D90080FF0AC081E0809341
:10304000470381E090914703913009F080E00895B3
:1030500082E0809347030E947C051092CF04F1CF59
:103060000E940D18882359F0E091B604F091B7043E
:10307000309729F00190F081E02D0995089580E0C6
:1030800008950F931F930E940D18882329F00E9422
:10309000E8061F910F9108950E94E80600917403BD
:1030A000109175032091760330917703600F711FA3
:1030B000821F931FEECFCF92DF92EF92FF926B01B0
:1030C0007C010E940D188823A1F02FB7F89460911D
:1030D000BB047091BC048091BD049091BE042FBFCD
:1030E0006C197D098E099F09FF90EF90DF90CF90BA
:1030F00008950E944118F4CF0E94411808954F92FC
:103100005F926F927F928F929F92AF92BF92CF9277
:10311000DF92EF92FF92CF936091E3037091E4030B
:103120008091E5039091E6030E945B186B017C019E
:103130000E9441184B015C018092E3039092E403EA
:10314000A092E503B092E603A091BA03EAEBF3E0A4
:103150008A2F90E04FEF5FEF60E070E04C195D095F
:103160006E097F09A9132AC08093BA038091E703EF
:10317000C0E0811108C080914505C82FC37019F0C7
:10318000C82FC695C69580914A01813009F440C088
:10319000882339F1823009F445C0833009F446C0F0
:1031A000CF91FF90EF90DF90CF90BF90AF909F9026
:1031B0008F907F906F905F904F900895218D328D0A
:1031C0002901712C612C441555056605770520F4FD
:1031D00081509F5F3296C6CF2C0D3D1D328F218FBF
:1031E000F8CF109247018092130590921405A09297
:1031F0001505B092160589E2EAEBF3E0A7E1B5E028
:1032000001900D928A95E1F781E080934A01C8CF41
:103210008C2F0E94940ECC2319F20E949D0B0E94C9
:103220009D0BBECF8C2F0E948007BACF80914305A3
:10323000882351F048E050E068E170E085E495E0D3
:103240000E94473310924305609113057091140555
:1032500080911505909116050E945B1860317105EB
:103260008105910508F49CCF10924A0199CF809175
:10327000440580FF08C08AEB97E09F938F930E94DC
:1032800054050F900F9085E38093450580914B0185
:1032900090914C01A0914D01809346059093470574
:1032A000A09348058FE7809349058FEF80934A05E7
:1032B00048E050E068E170E085E495E00E94473323
:1032C0001092430508950F931F93CF93DF9380913E
:1032D000380390913703892B8093FC029091360339
:1032E000992391F0892B8093FC0220E08EEF92E0ED
:1032F000FC013191CF0131112F5FF3E084309F0742
:10330000B9F721111092360348E050E06EE273E005
:103310008CEF92E00E947B33892B09F441C088E056
:10332000ECEFF2E0AEE2B3E001900D928A95E1F7A6
:10333000E091B604F091B704309791F10280F381E7
:10334000E02D8CEF92E009958091440582FF28C022
:1033500080FF04C080E092E00E94BB04D0E0C0E0A7
:103360000AEF11E08091440580FF0EC0FE01E45099
:10337000FD4F80811F928F931F930F930E945405DE
:103380000F900F900F900F902196C830D10551F7F4
:103390008091440580FF04C088EF91E00E94BB0447
:1033A000DF91CF911F910F910895882321F00E9402
:1033B0000D130E9463190895882339F09091380302
:1033C000982B909338030E94631908958823D1F1B4
:1033D0009CEF980F913A78F4EEEFF2E09191891317
:1033E00003C0DF0111971C9293E0E430F907B1F7B5
:1033F0000E946319089590E2980F983050F48770F6
:1034000091E001C0990F8A95EAF7892F0E940D1368
:10341000EFCF9BE5980F933028F490E080E00E9476
:103420003F07089598E5980F9B3128F490E080E0DD
:103430000E941A07089593E3980F933118F460E0FF
:103440000E9408160895CF93C82F8823B1F08CEFFF
:103450008C0F813A00F5EEEFF2E084E093E0DF01BB
:103460002D91C21761F08A179B07D1F76C2F8CEF53
:1034700092E00E9400070E946319CF910895219164
:10348000C21303C0DF0111971C928E179F07B9F773
:103490000E946319EBCF80E28C0F883068F4C7700C
:1034A00021E030E001C0220FCA95EAF7809138038D
:1034B000822B80933803DFCFEBE5EC0FE33040F451
:1034C000F0E0E557FE4F808190E00E943F07D5CFA6
:1034D000E8E5EC0FEB3150F4F0E0EE0FFF1FE257A0
:1034E000FE4F808191810E941A07C7CF83E38C0F22
:1034F000833118F661E08C2F0E940816BECFCF935F
:10350000C82F0E94231A8C2F0E94E619CF9108958C
:103510000F931F93CF93DF93C62FD42F022FFC015D
:1035200085818823A9F0609342050E94F406909358
:10353000410580934005C77081E001C0880FCA959E
:10354000EAF70E94DC19DF91CF911F910F91089546
:1035500080914205681332C08091400590914105E9
:103560000E94D906883C910548F510E21D0FCD1741
:10357000B9F080E28C0F883040F4C77081E001C060
:10358000880FCA95EAF70E94D519183048F481E0EF
:103590009D2F977001C0880F9A95EAF70E94DC1959
:1035A000802F0E947F1A183070F6D77081E001C01A
:1035B000880FDA95EAF70E94D519C5CFC77081E068
:1035C00001C0880FCA95EAF7F6CF811108C089EAD1
:1035D000611101C08AEA0E947F1A80E0089581305B
:1035E00029F48EE46111F7CF8BE4F5CF823079F3C3
:1035F000833099F7F6CFAFE0B0E0E1E0FBE10C9467
:103600007C328E010F5F1F4F8AE0D8011D928A9590
:10361000E9F786E3C82E81E0D82EF12CE12CAA240C
:10362000A394B12C26E3822E21E0922EF601819103
:103630006F018F3F09F442C0F894E82FE295EF70D4
:10364000F0E021A18F70A50102C0440F551F8A959B
:10365000E2F7CA01922F982B91A392A1809589231A
:1036600082A3789400C0E0E3F1E0712C31E0219175
:103670002F3F09F46BC0A22FA295AF70B0E09096D7
:103680008C9190E02F7002C0959587952A95E2F76E
:1036900080FD5CC0832F782A330F8E169F0639F782
:1036A000F601319780818F3F11F00E94D41050EACB
:1036B0005A95F1F7F801EE0DFF1D70828FEFE81AB1
:1036C000F80A95E0E916F10409F0B0CF4AE050E0BD
:1036D000B8018AE793E00E947B33009741F02AE02B
:1036E000F801AAE7B3E001900D922A95E1F7009165
:1036F0008503892B69F181E080933F030E94F406E2
:1037000090933E0380933D0380913D0390913E034F
:103710000E94D906059700F110E006571C4F45E0BE
:1037200050E06AE773E0C8010E947B33C12C892B0B
:1037300051F085E0EAE7F3E0D80101900D928A9517
:10374000E1F7CC24C39410923F0307C080E0A3CFDD
:1037500080913F038111D8CFC12C0E940D18D82E23
:10376000E0918503DE011B967D01882309F499C051
:1037700085E01D928A95E9F70E2F10E006571C4F41
:10378000B0904803B9E0BB1508F447C02DE631E21C
:1037900040E651E0B701C8010E94C617882309F42A
:1037A0005EC024E131E24DE651E0B701C8010E945C
:1037B000C617882309F453C029E130E245E751E0F8
:1037C000B701C8010E94C617882309F448C027EB37
:1037D0003FE140E851E0B701C8010E94C6178823C5
:1037E000F1F1F9E0FB1508F453C010924803809101
:1037F000840390E045E050E0B70186579C4F0E945B
:103800007B3321E020934603892BE1F4D12C8D2DCD
:103810008C292F96EDE00C94983280914003909182
:1038200041030E94D906843F914008F0AFCF8091B8
:103830004603882359F385E0D7011D928A95E9F75D
:1038400010924603A0918403B0E0A657BC4F85E0D8
:10385000FE013B9601900D928A95E1F7D8CF8091B9
:1038600048038F3F31F08F5F809348038A3008F41C
:10387000BECF0E94F4069093410380934003809151
:10388000440580FFD4CF8DE794E00E94BB04CFCFE6
:103890008091440580FFA9CF8AE694E00E94BB0492
:1038A000A4CFF0E0E657FC4F85E0ABE5B3E0019034
:1038B0000D928A95E1F765E070E08BE593E00E9458
:1038C000640780935A034091A70350E06091A603D8
:1038D00070E062567C4FC7010E9488338B859C85BF
:1038E000909362038093610362E070E0C7010E94DD
:1038F0006407809360038090630390906403A090BA
:103900006503B09066038091420390914303A091B8
:103910004403B091450388169906AA06BB06D1F068
:103920008092420390924303A0924403B0924503D5
:103930000E940D1881110EC00E94E806861A970A8F
:10394000A80AB90A8092740390927503A092760334
:10395000B092770388E0E7E6F3E0A5E4B5E00190F4
:103960000D928A95E1F710916F03112349F0809130
:10397000E703811105C00E94940E80E00E94800739
:103980001093E70344CFCF9310923803C6E0EEEFD5
:10399000F2E0DF018C2F1D928A95E9F790E080E03C
:1039A0000E943F0790E080E00E941A0710923703C0
:1039B0000E946319E4EBF3E0DF011D92CA95E9F779
:1039C0001092AF031092AD031092AE030E945F15E8
:1039D000CF910895AAE2B0E0E0EFFCE10C948632CA
:1039E00081ED94E02091F100DC012D93CD01B4E054
:1039F000893D9B07B9F78091D204833009F470C0E8
:103A0000B8F4813009F447C0823009F4B1C0809124
:103A1000E80083FF84C28091D1049091D2049A304F
:103A200008F07DC2E92FF0E0EC54FC4C0C9401331B
:103A30008A3009F48CC08B3009F46FC0893039F7B3
:103A40008091D104813219F78091D5049091D604E8
:103A50000297E8F68091E800877F8093E8008091E4
:103A6000E80082FF38C09091F3008091F200029745
:103A700031F48091F100813011F0863021F4809191
:103A8000F1008093C4048091E8008B778093E80074
:103A90000E94CC05BCCF8091D104813A09F0B7CF08
:103AA0008091E800877F8093E8008091D504909111
:103AB000D604892B61F468E085EC94E070E00E9404
:103AC00078068091E8008B778093E800A0CF60E0D3
:103AD00090E080E0F3CF8091CF048111C0CF97CFE9
:103AE0008091D104813A09F092CF8091D5049091D0
:103AF000D604892B09F08BCF8091E800877F8093D3
:103B0000E8008091E80080FFFCCF8091460180931F
:103B1000F1008091E8008E77B9CF8091D104813295
:103B200009F075CF8091D5049091D604892B09F0C6
:103B30006ECF8091E800877F8093E8000E94CC05DB
:103B40008091D304809346010E94C31C60CF809172
:103B5000D104813209F05BCF8091E800877F8093A8
:103B6000E8000E94CC058091D4048093C3044FCF19
:103B70008091D104813A09F04ACF8091E800877F93
:103B80008093E8008091E80080FFFCCF8091C3041F
:103B9000BECF803899F0823809F0C1C18091D50438
:103BA0008F70873008F0BBC18093E9008091EB00F3
:103BB00085FB882780F91092E90006C08091CD042A
:103BC0009091CE04911182609091E800977F90933C
:103BD000E8008093F1001092F1008091E8008E7768
:103BE0009AC1882309F488C1823009F098C1809174
:103BF000D30481118BC18091D5048F702FEF280FD2
:103C0000263008F08CC18093E9002091EB0020FF62
:103C10007DC1933031F48091EB0080628093EB00A2
:103C200075C19091EB0090619093EB0021E030E042
:103C300001C0220F8A95EAF72093EA001092EA0069
:103C40008091EB008860EACF811169C11091D304A3
:103C50001F778091E3008078812B8093E30080912F
:103C6000E800877F8093E8000E94CC058091E800FF
:103C700080FFFCCF8091E30080688093E30082E0C6
:103C8000111183E08093CF044AC18058823008F03C
:103C900046C12091D3043091D4042C3DE3E03E078B
:103CA000A1F583E08A838AE289834FB7F894DE0125
:103CB000139620E03EE051E2E32FF0E050935700EE
:103CC000E49120FF03C0E295EF703F5FEF708E2F0D
:103CD00090E0EA30C0F0C7968D939D932F5F24311A
:103CE00059F74FBF8091E800877F8093E8006AE230
:103CF00070E0CE0101960E9478068091E8008B77F3
:103D00008093E8000CC1C096E7CF8091D5049091D4
:103D1000D604432F55274330510509F44AC078F59E
:103D20004130510509F47AC08BE590E0E2EFF7E00D
:103D30004230510509F0F3C02091E800277F20931D
:103D4000E8002091D7043091D8048217930708F433
:103D50009C0140E02115310509F065C0411163C0A7
:103D60008091E80082FDC9CF8091CF04882329F299
:103D7000853019F28091E80083FFF2CFBECF413247
:103D8000510509F43CC04232510509F0C8C08330E6
:103D9000910508F0C4C0FC01EE0FFF1FEB51FE4F70
:103DA0000190F081E02D8E519E4FDC018C9190E0CE
:103DB0001AC0332721303105D1F02115310561F0CA
:103DC0002230310509F0ABC0EFE5F8E0E4918E2F29
:103DD00090E0EFE5F8E007C0E9E8F8E0E4918E2F25
:103DE00090E0E9E8F8E0009709F499C0A5CFE9E789
:103DF000F8E0E4918E2F90E0E9E7F8E0F4CF83302B
:103E0000910508F08CC0880F991FFC01E551FE4F09
:103E10000190F081E02D89E090E08ECF82E190E08A
:103E2000EDE4F8E089CF8091CF04882309F465CFD1
:103E3000853009F462CF8091E80083FD5ECF8091E8
:103E4000E80082FD8DCF8091E80080FF83CF9091C4
:103E5000F3008091F2002115310519F088309105A9
:103E600050F041E0089709F040E08091E8008E773B
:103E70008093E8006FCF44914093F1003196215038
:103E800031090196E8CF803809F049C08091E800F7
:103E9000877F8093E8008091D0048093F1009DCECD
:103EA00081113DC01091D3041230C8F58091E80013
:103EB000877F8093E8001093D0040E94CC051123E3
:103EC00011F084E005C08091E30087FDFACF81E026
:103ED0008093CF0442E061EC81E00E94EB0542E276
:103EE00061EC82E00E94EB0542E261EC83E00E941B
:103EF000EB058091CF0413C08091D304813079F415
:103F000081E0933009F080E08093CE041092E900C4
:103F10008091E800877F8093E8000E94CC05809123
:103F2000E80083FF0AC08091E800877F8093E80063
:103F30008091EB0080628093EB00AA96E3E00C9402
:103F4000A2320E94C31C2FEF84E39CE021508040EA
:103F50009040E1F700C0000088E19CE00FB6F894C3
:103F6000A895809360000FBE90936000FFCFA9E0FA
:103F7000B0E0EDEBFFE10C94853288E0E5E4F5E09C
:103F8000DE01119601900D928A95E1F78091E70389
:103F9000898749E050E067E673E0CE0101960E9410
:103FA0007B33009170031091710320917203309163
:103FB0007303EFB7F8944091BB045091BC04609137
:103FC000BD047091BE04EFBF401B510B620B730B1D
:103FD000443651056105710518F411E0892B21F172
:103FE0008091290190912A01865A9C4F4091280185
:103FF00050E04A30510510F049E050E0BE016F5FDB
:104000007F4F0E94883385E090E00E940132182F94
:10401000882351F00E94E806609370037093710347
:104020008093720390937303812F2996E4E00C949C
:10403000A132A4E0B0E0EFE1F0E20C9486324091CE
:1040400056035091570360915803709159032FB74D
:10405000F8948091BB049091BC04A091BD04B091F0
:10406000BE042FBF841B950BA60BB70B11E0843643
:104070009105A105B10570F10E9441186E5F7F4F57
:104080008F4F9F4F69837A838B839C83809121011B
:1040900090912201865A9C4F4091200150E045307A
:1040A000510510F044E050E0BE016F5F7F4F0E9469
:1040B000883384E090E00E940132182F882351F069
:1040C0000E94E80660935603709357038093580349
:1040D00090935903812F2496E3E00C94A2324F92DF
:1040E0005F927F928F929F92AF92BF92CF92DF9218
:1040F000EF92FF920F931F93CF93DF930F92CDB761
:10410000DEB7C62E4A015901482E880F5508C20154
:104110000E940132782E882309F480C0C20133E066
:10412000880F991F3A95E1F7FC01E050FF4F43815A
:1041300050E04115510511F041E050E080509F4F93
:10414000FC0164817581665A7C4FCE0101960E9404
:104150008833F40140815181628173812FB7F894D3
:104160008091BB049091BC04A091BD04B091BE04A9
:104170002FBF841B950BA60BB70B84369105A105A9
:10418000B10540F4B701C8010E94640799818917FD
:1041900009F444C00C2C000CDD08C6010E94013259
:1041A000782E811113C0712C872D0F90DF91CF9144
:1041B0001F910F91FF90EF90DF90CF90BF90AF9045
:1041C0009F908F907F905F904F900895C60123E05D
:1041D000880F991F2A95E1F7FC01E050FF4F4381BA
:1041E00050E0E416F50608F4A70180509F4FFC014B
:1041F00064817581665A7C4FC5010E948833B7017E
:10420000C8010E94640799818913CDCF0E94E806F6
:10421000F4016083718382839383C6CFA701B801C1
:10422000C5010E948833C0CFA2E0B0E0EAE1F1E22C
:104230000C94803282E0E82EF12C01E613E09E011E
:104240002F5F3F4F42E553E063E082E00E946F2022
:10425000C82E882339F100E080E01DC0D09079039A
:10426000D00E2D2D30E0A90142565C4F7A01E1E0DD
:10427000F0E0EC0FFD1FE00FF11D1081FA019081BD
:10428000191BB12E1B149CF0912F17FD90E0191BE8
:10429000111118C00F5F909178030917F8F281117E
:1042A0000E947C188C2D2296E9E00C949C32BA94E2
:1042B000F70180818F5F808360E08D2D0E94E51A79
:1042C0008C2DE0CF1F5FF70180818150808361E0FA
:1042D0008D2D0E94E51A8C2DDBCFA5E0B0E0E3E741
:1042E000F1E20C9481326B0185E0E82EF12C0BE5B4
:1042F00013E09E012F5F3F4F4EE453E061E080E00A
:104300000E946F20882349F095E0FE013196A9E4D0
:10431000B3E001900D929A95E1F795E0E9E4F3E0BE
:10432000D60101900D929A95E1F72596E8E00C945C
:104330009D32A8E0B0E0EFE9F1E20C94873266EE3E
:104340007EEF90E080E00E94753360E082E090E0D4
:104350000E94573360E083E090E00E945733109250
:104360003A031092390360E074E184E090E00E9427
:10437000753360E086E090E00E9457336FEF87E08E
:1043800090E00E94573340E050E0BA0188E090E0AE
:104390000E94693360E084E290E00E94573360E05D
:1043A00087E190E00E94573360E08CE090E00E944B
:1043B000573360E08DE090E00E94573319821A82F3
:1043C0001B821C821D821E821F82188648E050E0DC
:1043D00068E170E0CE0101960E94473340E050E072
:1043E000BA0180E290E00E94693340E050E0BA01F7
:1043F0008FE090E00E94693340E050E0BA0183E131
:1044000090E00E9469332896E2E00C94A332CF93A7
:10441000C82F8091890382FB992790F99C17F9F0A6
:10442000C0FB82F9809389036091880370918903AE
:1044300084E090E00E94753382E00E94DF13809157
:10444000440580FF0CC01F92CF9383EE91E09F93B1
:104450008F930E9454050F900F900F900F90CF9163
:104460000895B0E0A0E0E7E3F2E20C947F328C0123
:10447000FC018481882341F121E0408151816281E6
:10448000738195810E944614EC01FC01E851FC47C0
:10449000E730F105A8F5E254FC4C0C94013326E218
:1044A00041EE61EEC8010E94881A80912D03877049
:1044B00059F0F8018581882339F08091890382FFC2
:1044C00003C082E00E94DF13CDB7DEB7EAE00C94B0
:1044D0009B3227E245EE65EEE5CF26E241EE60EE47
:1044E000E1CF27E245EE64EEDDCF26E241EE62EE5B
:1044F000D9CF27E245EE66EED5CF28E241E0EBCFFB
:10450000F8018581882309F4E0C310924205CE01A9
:104510009057839708F0C3C384E090E00E94413332
:104520009093890380938803FE01E150F047E232C3
:10453000F10520F4EB53FC4C0C940133809188037B
:1045400081608093880395C08091890388608093FF
:1045500089038FC0809188038260F3CF80918803A4
:104560008460EFCF809188038860EBCF80918903CE
:104570008160EDCF809189038260E9CF80918803CB
:104580008061DFCF809188038062DBCF80918803D8
:104590008064D7CF0E94C31C809188038068D1CFEC
:1045A000809188038C60CDCF809189038360CFCFC9
:1045B000809188038E7FC5CF80918903877FC7CF85
:1045C000809188038D7FBDCF809188038B7FB9CF89
:1045D00080918803877FB5CF809189038E7FB7CF85
:1045E000809189038D7FB3CF809188038F7EA9CF7F
:1045F000809188038F7DA5CF809188038F7BA1CF89
:104600000E94C31C809188038F779BCF8091880381
:10461000837F97CF809189038C7F99CF8091880386
:1046200082FB992790F921E0922790FB82F990FB79
:1046300083F987CF80918903982F909591708E7F11
:10464000892B90FB81F983CF90918803892F8F7BF1
:1046500096FF806476CF0E94C31C90918803892FB7
:1046600097FB87F980586DCF61E08EE090E00E9463
:104670005733609188037091890384E090E00E9431
:1046800075330E94C31C11CF60E0EFCF9091880377
:10469000892F8F7E94FF806154CF90918803892F5A
:1046A0008E7F90FF81604DCF90918903892F877F06
:1046B00093FF88604CCF85E312C380914505982F06
:1046C000937021E092278C7F892B8093450510926F
:1046D0004A018091430581608093430580914405A0
:1046E00080FFE3CE1F929F9389E591E09F938F9384
:1046F00089E891E09F938F930E9454050F900F904B
:104700000F900F900F900F90D0CE4EE954E168EAD1
:1047100074E10E947A07C9CE48EA54E16EE974E177
:10472000F8CF47E155E161E275E1F3CF41E255E1B0
:1047300067E175E1EECF4DEF54E16AE075E1E9CF55
:104740004AE055E16DEF74E1E4CF43EE54E160EFF0
:1047500074E1DFCF40EF54E163EE74E1DACF49E476
:1047600055E164E575E1D5CF44E555E169E475E1CE
:10477000D0CF81E00E946B1498CE85E0FBCF8DE016
:10478000F9CF82E1F7CF90914405892F8E7F90FF7A
:1047900081608093440580FF05C082ED91E00E9416
:1047A000BB0483CE80EC91E0FACF6FEF7FEF90E017
:1047B00080E00E9475330E94A11F8091890382FBD3
:1047C000882780F991E089270E940722F8018581D6
:1047D000C081D181882309F44AC0CE010E941E13F2
:1047E000F82E682FCE010E949213BE018F2D0E94D9
:1047F000D0110E94EF11D82FC92FA82EF801C58023
:10480000B680B2943FE0B32280912D038770F1F01F
:10481000EC2CCC20E1F0892F807F803451F080E2B5
:104820008D0F883098F0B11004C0892F807E8032BF
:1048300069F08091890382FF09C082E00E94DF1342
:1048400080912D038770EE24E3948111E12CDC2EFE
:10485000D2942FE0D222FBE0FD1508F46DC0ED2DBF
:10486000F0E0E951FC4C0C94013380E0ADCFCE0177
:104870000E945F13F82EB9CF2C2F2F70F22EC07F1D
:1048800019F0F29490EFF922CC20B9F0FF2069F0F2
:1048900080E28D0F883010F0A11009C0809138039C
:1048A000F82AF09238030E9463198D2F43C080913B
:1048B0003703F82AF0923703F6CF8D2F0E94E619BE
:1048C000FF20D1F1D05ED83010F0A11004C08F2DA0
:1048D0000E940D1306C0F09480913703F822F092E5
:1048E00037030E94631928C03C2F3F70F32EC07F0E
:1048F000C03219F0F29480EFF822AA2059F081E03A
:10490000A81609F479C0CC2009F485C0BB2009F4AD
:1049100047C0CBCF8091890382FD3EC0CC20B1F14E
:10492000FF2039F080913803F82AF09238030E9472
:10493000631980E00E94231A2D2D2850330B243058
:10494000310510F40E943018EE20A9F080912D035B
:1049500080FD11C0F80115828695869586950E9486
:10496000F613C8010E94312280912D038695869509
:1049700086950E94CD1320E0F8014081518162812B
:104980007381848195810E9446149ECD80E00E94AF
:10499000E619FF2089F29BCFCC20A1F0B11004C012
:1049A0008F2D0E94DC19C8CF91E0B912C5CF80913C
:1049B00036039F2D9823F91609F4BECFF82AF092FA
:1049C0003603BACFB110B8CF8F2D0E94D519909170
:1049D00036038F2D892329F08F2D8095892380938D
:1049E0003603809105039F2D982309F4A5CFF094F9
:1049F000F822F0920503A0CFCC2029F0E5E0EB15DA
:104A000008F49ACFCDCFF4E0FB1508F495CF8F2DA5
:104A10000E94D51991CFBB20D1F329E3A21209C07E
:104A20003FEF87EE93E0315080409040E1F700C0C7
:104A300000008D2F0E94E6197FCF8C2F86958695DA
:104A4000837069F0813009F077CF8D2F9C2F9370A0
:104A5000C11002C080E090E00E941A076DCF8D2F38
:104A60009C2F9370C11002C080E090E00E943F072D
:104A700063CF6C2D8D2F0E9408165ECF8C2F837014
:104A800009F03FC0C11058CF4D2F42954695477051
:104A9000440F440F2D2F2F7030E0042E02C0220F40
:104AA000331F0A94E2F790E080E0D4FF09C08FE062
:104AB00090E002C0880F991F4A95E2F78095909583
:104AC000C695C695C370C23099F078F44091390309
:104AD00050913A03C13039F0822B932B84239523D4
:104AE0000E94061429CF242B352B822B932BF8CF31
:104AF000822B932B2091390330913A0382279327FD
:104B0000EFCF8695CC2011F08C2F8170882309F48B
:104B100013CF4D2F429546954770440F440F2D2FCC
:104B20002F7030E0042E02C0220F331F0A94E2F7E8
:104B300090E080E0D4FF09C08FE090E002C0880FD1
:104B4000991F4A95E2F780959095C695C695C370D2
:104B5000C23099F078F44091860350918703C130B8
:104B600039F0822B932B842395230E94C813E4CE23
:104B7000242B352B822B932BF8CF822B932B209138
:104B800086033091870382279327EFCFCF70CC2005
:104B900029F08C2F0E94F6138D2F03CF8D2F0E94AA
:104BA000D5198C2F0E94CD13C7CE8D2FE2EFAE16F4
:104BB00099F1EA1570F0F0EFAF16D1F021EFA216DF
:104BC00091F0CC2009F45BC0B1106FCE8C2F8F71A7
:104BD00027C033EFA31639F194EFA912F2CF8091D9
:104BE000890382FD2EC08C2F8F71CC20D9F218C082
:104BF000CC2069F0E4E0EB1508F49ECECF7181E0A3
:104C000090E002C0880F991FCA95E2F7B8CFF5E08F
:104C1000FB1508F491CEF2CF8C2F8F71C110C2CF4B
:104C20000E94F61389CE90E080E0CC2009F49DCF5D
:104C3000CF7181E090E002C0880F991FCA95E2F71A
:104C400094CFCC2089F0CF718C2F0E94F6138091E5
:104C5000890382FF07C028E0C29FC001112483603E
:104C600080932D038C2FDCCF81E00E94DF1331E095
:104C70003B1508F061CE82E00E94DF135DCEBB20C1
:104C800059F0893309F0D5CE8FEF97EEE3E08150EC
:104C90009040E040E1F7CBCE8C2F8F7183CFC631AF
:104CA000FCE7DF0751F5809138038A7A91E009F437
:104CB00090E09093040369E2811165E38CEF92E048
:104CC0000E9400070E946319F0CBC6312CE7D2077F
:104CD00009F064C0809104038111EDCC89E2EEEF0C
:104CE000F2E024E033E09191891303C0DF011197D2
:104CF0001C922E173F07B9F7E5CFC3303CE7D30727
:104D000009F453CD08F03AC0C1309CE7D90709F443
:104D100052CD08F038CDC115DC4709F057CD0E94BF
:104D2000C31CFFEF24E33CE0F15020403040E1F7AA
:104D300000C0000081E08093E00080E28093D80012
:104D40001092C9008FE19EE40197F1F700C00000C6
:104D500087E090EBDC0180934D0590934E05A09386
:104D60004F05B093500588E19CE00FB6F894A895E4
:104D7000809360000FBE90936000FFCFCB352CE78F
:104D8000D20709F472CDCC353CE7D30709F415CD31
:104D9000CA35DC4709F01ACD81E016CD8091380381
:104DA0008272FE01E052F847E531F10508F00ECDC0
:104DB000ED50FC4C0C940133CF93DF9380912C0386
:104DC000807F09F04DC080912B03882309F448C0EF
:104DD000E09112055091D904C0912703D091260388
:104DE000609128037091290347E05E17C9F18E2F67
:104DF00090E0E49FF0011124E652FB4F248122232E
:104E000091F1489FF001499FF00D1124DF01A65256
:104E1000BB4F11962C9111972C1325C02C912D135B
:104E200022C015962C91159721111DC012962D9117
:104E30003C91261B370B283C3105A8F480912C03AC
:104E40008F70806180932C03E052FB4F80818F70C4
:104E50008061808386E293E00E9431220E941413D5
:104E6000DF91CF910895FC013196E770BECFA4E1A8
:104E7000B0E0EDE3F7E20C947D328C0186E0F801BE
:104E8000DE011F9601900D928A95E1F7F801848169
:104E9000E58096E2A92E93E0B92E90912A03911114
:104EA00028C0882319F1EE20F1F0C8010E940B14EC
:104EB000F82E8823C1F087E0F801D50101900D920A
:104EC0008A95E1F780912A03813031F4809126039D
:104ED000909127030E9452130E94DC268F2D649626
:104EE000ECE00C949932C8010E943122FF24F39423
:104EF000F5CFD080C18082809380F0902B032091E9
:104F0000280330912903A401421B530BFF2009F40D
:104F1000D9C0483C510508F092C08823F9F290911D
:104F2000270380912C03282F207F09F056C0C91237
:104F300014C090912603D91210C0E11048C08F70A0
:104F4000806180932C0386E293E00E94312280915D
:104F50002C03F8018683F12CC1CFE11038C06C2DF1
:104F60008D2D0E945D056C2D8D2D0E945D05E82E16
:104F70008111F1CFDF86C88A8F8598890E945213EC
:104F8000292F22952F70243058F49F70223088F0FA
:104F9000992399F0F8019681907F79F4FE2C9ECFA9
:104FA0002A5F2F70223068F0C8010E943122EF2C56
:104FB000F5CF992311F0882389F3805E883070F350
:104FC000F3CF803F58F3815F833070F7E7CF809154
:104FD0002C03816080932C03BECFC91207C090912F
:104FE0002603D91203C0EE2009F48DC0C8010E9427
:104FF0000B14882309F477CFEE2009F474CF809145
:105000002C03803288F020912603309127033987C2
:1050100028879B868A8690912A039C871D868E8787
:10502000CE0108960E94312287E0F801A6E2B3E0A3
:1050300001900D928A95E1F70E94DC2657CF90915E
:105040002C03292F207F51F486E293E00E94312225
:1050500087E0F50111928A95E9F77DCF882309F45D
:105060003DCF809127038C1110C080912603D81268
:105070000CC0E1100AC09683C8010E94312287E06B
:10508000F50111928A95E9F729CFC8010E940B1406
:10509000882309F428CFEE2009F425CF80912C0332
:1050A000803210F220912603309127033A8329831E
:1050B0009C828B8290912A039D831E828F83CE01D6
:1050C0000196B0CF483C5105D0F6882309F40ECFA5
:1050D000FE2CEE2009F407CF809127038C1120C00D
:1050E00080912603D8121CC080912C0380FD0FC034
:1050F000982F907F61F08683903F31F0982F907FBA
:10510000905F8F70892B8683C8010E94312287E0CF
:10511000F801A6E2B3E001900D928A95E1F7DECEA8
:10512000C8010E940B1481117FCF80912C038160F4
:1051300080932C03C8010E943122D0CEABE1B0E0B5
:10514000E4EAF8E20C9485324E8B5F8B688F798F9E
:105150008A8F9B8F192F9111109237031D8A86E039
:10516000FE017696DE011F9601900D928A95E1F779
:105170000A8D002341F021E04F85588969897A8999
:10518000C8010E9446140B8B1C8B87E0FE013F96E2
:10519000DE01189601900D928A95E1F7CE010896EE
:1051A0000E94372781110CC087E0FE013896DE018E
:1051B000119601900D928A95E1F78C8581110BC0B3
:1051C00017E0809112059091D904891331C06B9634
:1051D000E4E00C94A1322091D90430E0C901019699
:1051E00087709927409112054817190699F097E0A2
:1051F000929FD001939FB00D1124A652BB4FFE0188
:10520000319601900D929A95E1F78093D9040E940E
:105210001413D6CF0E94C31C1092D9041092120509
:1052200087E0E6E2F3E0DF011D928A95E9F7C8CF57
:10523000819FC001112486529B4F0E9437278823EB
:1052400031F28091120590E0019687709927809342
:105250001205B7CFA6E0B0E0E0E3F9E20C948532A6
:105260000E94F4068C0180913B0390913C038017CF
:10527000910781F019821A820E94F406682F4981F1
:105280005A81792F80E090E00E949E2810933C0381
:1052900000933B032696E4E00C94A1321F920F92F8
:1052A0000FB60F9211242F933F934F935F936F93F9
:1052B0007F938F939F93AF93BF93CF93DF93EF939E
:1052C000FF93D091E900DF708091EC00C82FC1708E
:1052D00080FDC0E81092E9008091F000877F809304
:1052E000F00078940E94EA1C1092E9008091F0008E
:1052F00088608093F000CD2BCF70C093E900FF91C0
:10530000EF91DF91CF91BF91AF919F918F917F915D
:105310006F915F914F913F912F910F900FBE0F9022
:105320001F9018951F920F920FB60F9211242F9372
:105330003F934F935F936F937F938F939F93AF931D
:10534000BF93EF93FF938091E10082FF15C080919E
:10535000E20082FF11C08091E1008B7F8093E10029
:105360002091C1042F5F822F62E30E94AE32992305
:1053700009F4C0C02093C1048091DA0080FF28C0E6
:105380008091D80080FF24C08091DA008E7F8093C6
:10539000DA008091D90080FFE3C080E189BD82E11D
:1053A00089BD09B400FEFDCF81E08093CF048EED6E
:1053B00097E00E94BB048091C204811109C00E9441
:1053C0007C050E941D068091E20084608093E200CB
:1053D0008091E10080FF1BC08091E20080FF17C038
:1053E0008091E2008E7F8093E2008091E2008061F4
:1053F0008093E2008091D80080628093D80019BC2D
:1054000085E08093CF0486EE97E00E94BB048091F4
:10541000E10084FF2FC08091E20084FF2BC080E177
:1054200089BD82E189BD89B5982F917080FFFBCF3E
:105430008091D8008F7D8093D8008091E1008F7E8D
:105440008093E1008091E2008F7E8093E200809162
:10545000E20081608093E2008091D004882309F407
:1054600089C084E08093CF048AEE97E00E94BB0459
:105470008091CF048091E10083FF2BC08091E200F6
:1054800083FF27C08091E100877F8093E10082E065
:105490008093CF041092D0048091E1008E7F80939E
:1054A000E1008091E2008E7F8093E2008091E20033
:1054B00080618093E20042E060E080E00E94EB05C2
:1054C0008091F00088608093F0008EEE97E00E945B
:1054D000BB04FF91EF91BF91AF919F918F917F910D
:1054E0006F915F914F913F912F910F900FBE0F9051
:1054F0001F9018951092C1048091C004882309F46C
:105500003BCF8091CF048430C1F49091E9009F702B
:105510002091EC00822F817020FD80E8892B93E0A0
:105520009093E9009091EB0090FF04C09091EE0001
:1055300097FD08C08F708093E9001092C0041CCFC3
:105540001092F1009091E80095FDFACF9091E8005B
:1055500090FFF0CF9091E8009E779093E800EACF1B
:1055600019BC1092CF0482EE97E00E94BB04109207
:10557000C2042ECF8091E30087FD93E09093CF0487
:1055800073CF78941F921FB61F9211248F939F930D
:10559000AF93BF938091BB049091BC04A091BD04D4
:1055A000B091BE040196A11DB11D8093BB049093E0
:1055B000BC04A093BD04B093BE04BF91AF919F9172
:1055C0008F911F901FBE1F9018951F921FB61F929C
:1055D00011248F939F93AF93BF938091BA0481114D
:1055E00013C08091BB049091BC04A091BD04B09104
:1055F000BE044196A11DB11D8093BB049093BC04D1
:10560000A093BD04B093BE04BF91AF919F918F91C1
:105610001F901FBE1F901895CDB7DEB762970FB6CB
:10562000F894DEBF0FBECDBF85B7806885BF85B754
:10563000806885BF84B7877F84BF0FB6F894A8952C
:1056400080916000886180936000109260000FBEBE
:1056500080E890E00FB6F894809361009093610029
:105660000FBE80EE96E19093FB028093FA020E94B7
:105670007C050E941D068091E20084608093E20018
:1056800078948091CF048823A1F01091E9001F70D5
:105690009091EC00892F817090FD80E8182B10927A
:1056A000E9008091E80083FD0E94EA1C1F701093BE
:1056B000E90082E084BD93E095BD9AEF97BD8093A9
:1056C0006E0010927403109275031092760310927C
:1056D000770355985D988FE891E00197F1F700C046
:1056E00000000E949D0B80933B010E940D188111C8
:1056F0000E94153180913B0192E0811190E09093DE
:10570000A60382E0A82FA91BA093790390913B01E7
:105710008093A70390913B018093780358EDA52EC9
:1057200051E0B52E46ED51E08A01950161E070E04F
:10573000F90181919F01E82FE295EF70F0E0F1A06F
:105740008F706B0101C0CC0C8A95EAF79C2D909567
:105750009F2191A382A18C2982A3D8018D918D01D3
:10576000E82FE295EF70F0E0F1A08F706B0101C0BF
:10577000CC0C8A95EAF79C2D90959F2191A382A14C
:105780008C2982A3B1E02A3D3B0791F6EFE8F1E0D6
:105790003197F1F700C000001091A70368EA73E0A9
:1057A000FB018E2F861B811708F471C280913B018B
:1057B00081112CC085E0EEE4F1E0DE011796019046
:1057C0000D928A95E1F78F818093360188858093C9
:1057D00037018985809338018A85809339018B85CB
:1057E00080933A0186E0E3E5F1E0DE011196019055
:1057F0000D928A95E1F7FE013196A0E3B1E0CE016A
:10580000079621912D93E817F907D9F780913B016D
:1058100095E0811190E09093850385E0891B80934A
:10582000840306E311E04BE3C42E41E0D42EF801DB
:1058300081918F018F3F11F00E94D410C016D106C4
:10584000B1F700E311E0D8018D918D018F3F11F088
:105850000E94D410B1E006331B07A9F78AE0EAE8FA
:10586000F3E0DF01282F1D922A95E9F7EAE7F3E03C
:10587000DF011D928A95E9F790E080E00E944133B4
:10588000863E9E4F11F00E94992182E090E00E9496
:105890003933182F8093440584E090E00E9441330F
:1058A000909389038093880383E090E00E943933CA
:1058B00090E00E940614109217058FEF9FEF9093CF
:1058C0003105809330059093330580933205909392
:1058D0003505809334059093370580933605909372
:1058E00039058093380590933B0580933A05909352
:1058F0003D0580933C0590933F0580933E051092B3
:10590000BA039093D4038093D3039093D6038093E8
:10591000D5039093D8038093D7039093DA038093B1
:10592000D9039093DC038093DB039093DE03809391
:10593000DD039093E0038093DF039093E203809371
:10594000E10390E080E00E944133863E9E4F71F07B
:1059500010FF08C08AE096E09F938F930E94540541
:105960000F900F900E9499210E94371981E0809337
:10597000430548E050E068E170E085E495E00E946E
:10598000293310924305809145058C7F71F48091F5
:10599000440580FF08C085EB95E09F938F930E949C
:1059A00054050F900F900E9437198091440580FF95
:1059B00089C08BE995E09F938F930E945405809155
:1059C00044050F900F9080FF7DC080914505837046
:1059D0001F928F938CE795E09F938F930E945405BD
:1059E000809144050F900F900F900F9080FF6AC038
:1059F00080914505869586951F928F938FE595E05A
:105A00009F938F930E945405809144050F900F90AF
:105A10000F900F9080FF56C0809146051F928F9384
:105A200081E495E09F938F930E94540580914405F3
:105A30000F900F900F900F9080FF44C0809147050A
:105A40001F928F9383E295E09F938F930E9454055A
:105A5000809144050F900F900F900F9080FF32C0FF
:105A6000809148051F928F9385E095E09F938F93D7
:105A70000E945405809144050F900F900F900F9055
:105A800080FF20C0809149051F928F9387EE94E09C
:105A90009F938F930E945405809144050F900F901F
:105AA0000F900F9080FF0EC080914A051F928F9338
:105AB00089EC94E09F938F930E9454050F900F9070
:105AC0000F900F900E940D18811102C00E94183192
:105AD0008CE391E09093B7048093B604FF24F39491
