:100000000C942B040C94312E0C9463040C94630414
:100010000C9463040C9463040C9463040C946304C4
:100020000C9463040C9463040C9451270C940D27D6
:100030000C94A4280C9463040C9463040C9463043F
:100040000C9463040C9463040C9463040C94630494
:100050000C9463040C9480280C9463040C94630443
:100060000C9463040C9463040C9463040C94630474
:100070000C9463040C9463040C9463040C94630464
:100080000C9463040C9463040C9463040C94630454
:100090000C9463040C9463040C9463040C94630444
:1000A0000C9463040C9463040C9463040631FF09FC
:1000B00074A1010975150026FF00952075088102BD
:1000C0000976150026FF00952075089102C00501EC
:1000D0000980A101850319012AB700150126B7007F
:1000E000950175108100C0050C0901A10185041955
:1000F000012AA002150126A002950175108100C0F9
:1001000005010906A101050719E029E715002501E8
:10011000950875018102950175088101050719008F
:1001200029FF150026FF00950675088100050819AE
:10013000012905950575019102950175039101C08D
:10014000726762206D617472697820746F67676C82
:1001500065205B25735D3A207267625F6D61747222
:1001600069785F636F6E6669672E656E61626C6544
:10017000203D2025750A0044454255473A206469D0
:100180007361626C65642E0A0044454255473A200B
:10019000656E61626C65642E0A004F6E6573686FF0
:1001A000743A206163746976653A2025640A000A0E
:1001B000002530325820006B6579626F6172645F90
:1001C0007265706F72743A2000167C3A003B003CF6
:1001D000003D003E002B0014001A00080015001717
:1001E00000E00004001600070009000A001A7C1D48
:1001F000001B0006001900050000000000E3002CB1
:1002000041E2002800440043004200410040003F1A
:10021000006500130012000C0018001C00340033AD
:10022000000F000E000D000B001B7C38003700365D
:100230000010001100000000004C342A42E500B616
:100240005235001E021F0220022102220201002D4F
:10025000001A0117132E002D02390026022B132B32
:10026000012702000001000000000003520000000E
:10027000000000000001002C4101004C0045002757
:100280000226022502240223025300460061006078
:10029000005F002E02035200005E005D005C003132
:1002A00000010000005B005A00590000000000003F
:1002B0000001002C32010065000000AA00A900AE78
:1002C00000A800000001000000000000000000265F
:1002D0000201002F022F0030003002330001000025
:1002E0000000000352000033020000000001002C57
:1002F00022010001000000000000000000000000DA
:100300000046004B004D0052004A00270203524EA7
:10031000004F0051005000340001000000000000B8
:1003200000650034020000000001002A42010001C3
:100330000029001E001F002000210022002B0017B2
:100340000014001A00080015000A00E0000400165E
:100350000007000900E1001D001B00060019000550
:100360000000000000E3002C00E20000520000004A
:10037000002B112B130000000000004B0000005266
:10038000000000000000004E004F0051005000002F
:10039000000000000000000000000000000000005D
:1003A0000000002C320000007C0000000000000073
:1003B000000000000000002778237821782B7800C7
:1003C00000000028782478227820780000000000BF
:1003D000000000000000000000000000000000001D
:1003E000000000000000000000000000000000000D
:1003F00000000000000000000000000000000000FD
:1004000000000000000000000000000000000000EC
:1004100000000000000000000000000000000000DC
:100420000054617267657420636F6E6E65637465F6
:10043000640D0A0054617267657420646973636FA8
:100440006E6E65637465642C207468726F74746C6E
:10045000696E6720636F6E6E656374696F6E20618D
:100460007474656D7074730D0A004661696C65641F
:1004700020746F20657865637574652025730A00A4
:100480007267625F6D61747269785F636F6E6669CF
:10049000672E666C616773203D2025640A007267D1
:1004A000625F6D61747269785F636F6E6669672EF3
:1004B0007370656564203D2025640A007267625F81
:1004C0006D61747269785F636F6E6669672E6873B9
:1004D000762E76203D2025640A007267625F6D618A
:1004E000747269785F636F6E6669672E6873762EC3
:1004F00073203D2025640A007267625F6D6174722B
:1005000069785F636F6E6669672E6873762E682000
:100510003D2025640A007267625F6D6174726978BC
:100520005F636F6E6669672E6D6F6465203D202581
:10053000640A007267625F6D61747269785F636FED
:100540006E6669672E656E61626C65203D2025646C
:100550000A007267625F6D61747269785F636F6EC3
:1005600066696720454550524F4D0A007267625FC9
:100570006D61747269785F696E69745F64726976BF
:10058000657273207267625F6D61747269785F6310
:100590006F6E6669672E6D6F6465203D20302E207A
:1005A00057726974652064656661756C7420766144
:1005B0006C75657320746F20454550524F4D2E0A5F
:1005C000007267625F6D61747269785F696E6974E9
:1005D0005F64726976657273206565636F6E6669C4
:1005E00067206973206E6F7420656E61626C65644C
:1005F0002E0A005B735D000A0025303862003A2045
:100600000025303258000A722F63203031323334E3
:100610003536370A000A0025303258006C65645FB1
:100620007461736B3A2000000101010101010101B5
:100630000102020202020202020203030303030395
:100640000303040404040404040505050505060663
:100650000606060707070707080808080909090921
:100660000A0A0A0B0B0B0C0C0C0D0D0D0E0E0E0FC7
:100670000F0F101011111112121313141415151657
:10068000161717181819191A1A1B1B1C1D1D1E1EC8
:100690001F20202122222324242526262728292919
:1006A0002A2B2C2D2D2E2F30313232333435363744
:1006B00038393A3B3C3D3E3F404142434445464742
:1006C00048494A4C4D4E4F50515354555658595A1B
:1006D0005B5D5E5F616264656668696B6C6D6F70BF
:1006E00072737577787A7B7D7E8082838587888A2E
:1006F0008C8E8F91939596989A9C9EA0A2A3A5A765
:10070000A9ABADAFB1B3B5B7BABCBEC0C2C4C6C960
:10071000CBCDCFD1D4D6D8DBDDDFE2E4E7E9EBEE19
:10072000F0F3F5F8FAFDFF6565636F6E6669675F64
:100730007570646174655F7267625F6D6174726920
:10074000785F64656661756C740A005B435D005B8D
:10075000445D005B535D005B575D005B525D0009CB
:10076000025B00030100A0FA09040000010301017B
:100770000009211101000122400007058103080042
:100780000109040100010300000009211101000119
:10079000223200070582032000010904020002033F
:1007A0000000000921110100012222000705830336
:1007B00020000107050303200001120100020000D0
:1007C000000810CB5672000701020001180349000F
:1007D00072006900730020005200650076002E0050
:1007E0002000370000000E034B006500650062002A
:1007F00069006F00000004030904726762206D61E4
:100800007472697820736574207370656564205B09
:1008100025735D3A2025750A00726762206D617448
:100820007269782073657420687376205B25735D28
:100830003A2025752C25752C25750A0072676220D3
:100840006D6174726978206D6F6465205B25735DDE
:100850003A2025750A0011241FBECFEFDAE0DEBF73
:10086000CDBF04B603FE18C08091400590914105AC
:10087000A0914205B09143058730904BA740B04B03
:1008800059F41092400510924105109242051092C1
:100890004305E0E0F8E3099512E0A0E0B1E0ECEBFD
:1008A000F1E602C005900D92AA3FB107D9F725E005
:1008B000AAEFB2E001C01D92A034B207E1F70E9496
:1008C000CB280C9467300C940000FF93EF93E091D9
:1008D000FA02F091FB02309709F00995EF91FF9130
:1008E0000895FC018591803011F0EFDFFBCF089572
:1008F000FF27E0E230E247FF0CC0419597FF09C0B7
:10090000EDE26095709580959095611D711D811D3A
:10091000911D27FF02C0219530E350E2AA27660F00
:10092000771F881F991FAA1FA41710F0A41B639597
:100930005A95A9F7AA3008F0A95FA05DAF93F39587
:10094000611571058105910541F7ED3211F4EF93C1
:10095000F395F21718F43F93F395FBCF8F91B5DF22
:10096000FA95E1F70895E991F9918591803021F0A8
:10097000853219F0AADFF9CF089520E0E894559167
:100980005532C1F3503311F4689455915A3348F4F9
:10099000505390F3220F022E220F220F200D250F0D
:1009A000F4CF0EF4219589919991533619F3533769
:1009B00029F1533559F1BC0188279927E8945C3611
:1009C00021F48991999168945591543639F446EF00
:1009D0007EF077FF0DC08FEF9FEF0AC055374AE0DA
:1009E00039F0583540E121F0523642E009F00895DF
:1009F000FF93EF937DDFEF91FF91B7CFFF93EF93DD
:100A0000FC0181918030B9F360DFFBCFFF93EF935E
:100A100068DFF1CFDF93CF93CDB7DEB72596A3DFA5
:100A2000CF91DF910895482F209105059091CC0436
:100A300057E0291302C080E0089530E0529FF00192
:100A4000539FF00D1124E353FB4F8181681306C0BF
:100A50008081481303C085818111EECF2F5F3F4F06
:100A60002770E7CFE8EDF0E080818E7F80831092E1
:100A7000E2001092DA001092E100A0EEB0E08C915A
:100A800081608C9380818F77808319BCA7EDB0E063
:100A90008C918E7F8C9380818F7E80831092B504A1
:100AA00008952091E4003091E50095E6A901209198
:100AB000EC00822F817020FF06C08091E80080FF4B
:100AC00006C080E008952091E80022FD1AC08091C0
:100AD000C204882389F0853089F08091EB0085FD80
:100AE0000FC02091E4003091E50042175307F9F25E
:100AF0009150E1F684E0089582E0089583E008953E
:100B000081E008958091C40487FF13C08091E800BC
:100B100082FF06C08091E8008B778093E80004C0D4
:100B20008091C2048111F2CF08958091C20488237C
:100B3000D9F38091E80080FFF8CF8091E8008E77AC
:100B4000ECCF982F9093E900242F762F50E089174F
:100B500031F07091EC002091ED005091F00021FDFA
:100B600007C09F5F973071F78093E90081E0089597
:100B70003091EB003E7F3093EB003091ED003D7FF4
:100B80003093ED003091EB0031603093EB007093C7
:100B9000EC002093ED005093F0002091EE0027FD33
:100BA000E0CF80E00895B0E0A0E0E9EDF5E00C943E
:100BB000572FC8EDD0E088818F7E8883E7EDF0E085
:100BC00080818160808384E082BF81E08093B5046E
:100BD00088818E7F888302EE10E0F80110821092E7
:100BE000DA0081EEC82ED12CF601108288818F7731
:100BF000888388818068888388818F7D888319BCF9
:100C00001092C2041092C3041092C1041092C00446
:100C100090EEE92EF12CF70180818B7F8083888113
:100C20008160888342E060E080E00E94A105F601D7
:100C300080818E7F8083F8018081816080838081C4
:100C400088608083F70180818E7F808388818061C6
:100C50008883CDB7DEB7E8E00C94732FFC01809158
:100C6000CA049091CB0486179707A0F0611571050F
:100C700029F49091E8009E779093E80090E0611548
:100C8000710551F4911108C08091E80082FF34C0D1
:100C900080E00895BC01F2CF8091C2048823C1F1A5
:100CA0008530C1F18091E80083FD30C08091E8007B
:100CB00082FDEACF8091E80080FFE1CF8091F300D0
:100CC0002091F200382F6115710519F02830310597
:100CD00058F091E02830310509F090E02091E800CB
:100CE0002E772093E800CBCF81918093F100615063
:100CF00071092F5F3F4FE7CF8091C204882341F0F5
:100D0000853041F08091E80083FFBECF81E00895F7
:100D100082E0089583E0089508958091B7040895CE
:100D20009C014FB7F8948091AE049091AF04A091CC
:100D3000B004B091B1044FBF821B930B08952FB73D
:100D4000F8946091AE047091AF048091B0049091DA
:100D5000B1042FBF08952FB7F8948091AE049091FD
:100D6000AF04A091B004B091B1042FBF08959C01CD
:100D7000FC0132969FEF80E04191461751F09F3F72
:100D800019F4411101C0982F8F5F8630A9F79F3F5A
:100D900009F40895290F311D97FD3A95F9016283F1
:100DA0000895A3E0B0E0E7EDF6E00C945D2F20910C
:100DB000AB043091AC0428173907A1F09093AC0430
:100DC0008093AB04E091A904F091AA04309751F00C
:100DD00024E029839B838A830680F781E02DCE015E
:100DE000019609952396E2E00C94792FA3E0B0E0F8
:100DF000ECEFF6E00C945D2F2091A7043091A8044D
:100E000028173907A1F09093A8048093A704E091D4
:100E1000A904F091AA04309751F023E029839B8321
:100E20008A830680F781E02DCE01019609952396ED
:100E3000E2E00C94792FFC01680F791F8FEF91E3AA
:100E40002191822728E030E087FF09C0880F892799
:100E500021503109C9F7E617F70791F70895880F70
:100E6000F7CFFA01811101C0FB0109950895809324
:100E70004501809138058370809344010E94861556
:100E800083E080934A010895EF92FF920F939701B8
:100E9000201B31092F3F310519F010F02FEF30E002
:100EA000322F3095482F430F08F44FEF842F620FF5
:100EB0000F91FF90EF900895EF92FF920F93972F6D
:100EC000093438F4B701601B71096F3F710519F0DF
:100ED00010F06FEF70E0485F5F4F4131510540F017
:100EE000A901485F5F4F4131510510F06FEF70E08D
:100EF0006095482F460F08F44FEF842F37FF02C04C
:100F00002D5F3F4F3595279535952795609139058C
:100F1000620F792F0F91FF90EF900895EF92FF925B
:100F20000F931F930E0D1F2D111DF90137FF03C0E5
:100F3000F195E195F10924E0EE0FFF1F2A95E1F705
:100F4000EF3FF10519F014F0EFEFF0E09A0157FFD1
:100F500003C031952195310994E0220F331F9A95F2
:100F6000E1F72E173F070CF4F901E00FF11FEF3FF7
:100F7000F10519F010F0EFEFF0E0E095282F3E2F8B
:100F8000230F08F42FEF822F1F910F91FF90EF9006
:100F90000895EF92FF920F93970195E0099F200D1E
:100FA000311D11242F3F310519F010F02FEF30E0E3
:100FB0002095382F320F08F43FEF832F0F91FF90C9
:100FC000EF90089522E8241B08F420E0620F0895B2
:100FD0004095282F429F412D1124842F08950F936F
:100FE0001F9310E0F801EE0FFF1FE35DFD4F9081AE
:100FF000905797FD9195000F111FF801EF50FE4F8C
:1010000005AD0052110B2003F001219FF00D1124BA
:1010100008E310E0091B110997FD139540039001A7
:10102000419F300D1124E20FF31F9F01220F331F48
:101030002E0F3F1F37FF02C021583F4F220F232F93
:10104000221F330B620F1F910F9108950F931F936F
:10105000522F10E0F801EE0FFF1FEF50FE4FA5AD2D
:10106000A052BB0B9D015203F001539FF00D1124C0
:10107000000F111FD801A35DBD4F0C910057110B3C
:1010800040039001419F300D11242E0F3F1F37FF69
:1010900002C0215C3F4F96E0359527959A95E1F780
:1010A000620F1F910F9108950F931F93522F10E01D
:1010B000F801EE0FFF1FEF50FE4FA5ADA052BB0B86
:1010C0009D015203F001539FF00D1124000F111FD9
:1010D000D801A35DBD4F0C910057110B4003900147
:1010E000419F300D11242E0F3F1F37FF02C02158A2
:1010F0003F4F220F232F221F330B620F1F910F919F
:101100000895EF920F93972F23E0029FB0011124CF
:10111000759567956E0D792F0F91EF900895322F89
:1011200050E0FA01EE0FFF1FEF50FE4F95AD9052C9
:1011300097FD9195440F551FFA01E35DFD4F208106
:10114000231B330B290F311D97FD3A95620F08952C
:10115000E42FF0E0EE0FFF1FEF50FE4F65AD621B76
:101160000895E42FF0E0EE0FFF1FE35DFD4F608177
:10117000621B0895622F0895E42FF0E0EE0FFF1F29
:10118000E35DFD4F408134EE439F412D1124E82F54
:10119000F0E050E0445E5F4FDA01A21BB1099D010F
:1011A000B7FF03C031952195310993E0220F331F1A
:1011B0009A95E1F7AF01421B530B9A0157FD20E0CE
:1011C000582F259F212D1124822F0895E42FF0E020
:1011D000EE0FFF1FE35DFD4F408134EE439F412D35
:1011E0001124E72FF0E050E0445E5F4FDA01A21BCC
:1011F000B1099D01B7FF03C031952195310993E0F5
:10120000220F331F9A95E1F7AF01421B530B9A014E
:1012100057FD20E0279F212D1124722F08950E9451
:10122000110B0895FF920F931F93CF93DF93182F05
:10123000062FF42ED0E0C0E02F2D402F612FCE01DD
:101240000E940F092196C434D105B1F7CDB7DEB79E
:10125000E5E00C94762FFC019B01009729F480E0D7
:1012600077FF2BC080E80895AC0197FF04C04427A6
:101270005527481B590BB901640F751F37FD10C066
:10128000241B350BC901A5E0880F991FAA95E1F72A
:101290000E94A42F80E2861BF7FF0FC0819508955E
:1012A000CB0165E0880F991F6A95E1F7BA01621BCF
:1012B000730B0E94A42F80E6EECF0895EF920F9358
:1012C000CF93DF93D72FC82FC9010E19BA010E94FF
:1012D0002B09602F681B7D2F8C2FDF91CF910F91F1
:1012E000EF9008950F93CF93DF93D72FC82FC901A5
:1012F000BA010E942B09682F600F7D2F8C2FDF9180
:10130000CF910F910895EF920F931F93CF93DF9397
:10131000D62FC72F182FC9010E19010FBA010E942D
:101320002B09081B202F219F212D1124822F6D2F87
:101330007C2FDF91CF911F910F91EF900895EF9245
:101340000F931F93CF93DF93D62F172FC82FC90169
:101350000E19070FBA010E942B09702F781B719F7D
:10136000712D11246D2F8C2FDF91CF911F910F9133
:10137000EF9008950F931F93CF93DF93D62FC72F2E
:10138000182FC901212F201B022FBA010E942B09FF
:10139000982F990F990F891B800F282F219F212D9E
:1013A0001124822F6D2F7C2FDF91CF911F910F91F0
:1013B00008950F931F93CF93DF93D62F172FC82F26
:1013C000C901272F201B022FBA010E942B09982F39
:1013D000990F990F782F791B700F719F712D112420
:1013E0006D2F8C2FDF91CF911F910F910895E82FD2
:1013F00086FDE0952E2F2F7086FD2F5FE695E695F2
:10140000E695E670F0E0E652FE4F9181929F902DB6
:10141000212D112492959F702295207F922B20815F
:10142000920F87FD919580E8890F0895AC01823075
:10143000910508F408959FEF413E8EE1580740F46E
:101440009A0195E0369527959A95E1F798E0920FE5
:1014500061E0E62FE90FFF27FF1F9F0135952795D4
:10146000822F229FF001239FF00DF00D11244E17C3
:101470005F0738F49FEF920F961758F78FEF860F9C
:1014800008952F3FE9F361E0620FF6CF0F93CF93FA
:10149000DF93D72FC82F47FD419588E390E0841B49
:1014A000910947FD9395889FB001899F700D700D3C
:1014B0001124229FC001239F900D900D1124860FAF
:1014C000971F0E94160A982F990F890F682F600F97
:1014D0007D2F8C2FDF91CF910F91089530E020E088
:1014E000869F212D969F200D311D1124C90108953D
:1014F000AF92BF92CF92DF92FF920F931F93CF9341
:10150000DF93362F472FE82FF0E0E95DF94F711197
:101510000FC0E4918E2F2E2F6E2F722FDF91CF915F
:101520001F910F91FF90DF90CF90BF90AF900895E3
:10153000C72FD0E02491F22E022F10E056E0659FD5
:10154000C0011124EFEFF0E0BF010E94902F832F24
:1015500090E0880F991F35E5369FD001379FB00D79
:1015600011248A1B9B0B982F990F980F6F01CC1A8F
:10157000DD0AC09ED001C19EB00DD09EB00D1124D9
:101580008B2F499FA0011124452F55276F01C41AA5
:10159000D50AC09EA001C19E500DD09E500D1124B1
:1015A0005F01A91AB108AC9E6001AD9ED00CBC9E33
:1015B000D00C1124CD2CDD24EC19FD09E09FE001B5
:1015C000E19FD00DF09FD00D1124ED2F62307105F9
:1015D000A1F050F46115710509F49ECF61307105D9
:1015E00081F0EB2F852F98CF6430710569F080F082
:1015F0006630710509F490CFF4CFE22F2B2F8D2F99
:101600008BCFE22F252F88CFEB2F822F2D2F84CF4A
:101610002B2F8F2DE52F80CF89B185FB882780F96F
:101620000895FF920F931F93CF93DF93EC01F62E53
:10163000042F122F0E940C0B81110FC0C232D10552
:101640007CF0A297FE01EE0FFF1FEC0FFD1FE5528D
:10165000FC4FF1820083128303C0C232D10594F3A0
:10166000CDB7DEB7E5E00C94762FCF93C82F0E945C
:101670000C0B882329F081E0C23228F080E003C0FF
:1016800081E0C434D8F7CF910895A8E0B0E0EBE44E
:10169000FBE00C944D2F282E7C836B832091470117
:1016A0008EE0289F802D11248D83825F898385346D
:1016B00010F034E439830E940C0B882329F08981CF
:1016C000833210F092E299830E940C0B811105C0C5
:1016D000ED81E23210F4F2E2FD8320910A052A83C3
:1016E0009D81892F90E098878F83880F991FFC0137
:1016F000EF50FE4F6F01822D90E09C012F5F3F4F16
:101700003E832D8389819F81981730F00E94350B8D
:101710002896E2E10C94692FEF81F885EB54FD4F98
:101720008081909148018923F9F0309039054090EB
:101730003A058D819E81865F9A4F3C01522C10E0C4
:10174000FA815F16D8F020913B05129F112D1124CC
:10175000632D742D812F0E94780A462F282F672F22
:101760008F8198850E940F092F8138852F5F3F4F09
:1017700038872F8332E0C30ED11CC4CFF30181918F
:101780003F01F601A4ACA81ABB0885ACF301878120
:10179000881A9908AA9C9001AB9C300D300D112439
:1017A000889CC001899C900D900D1124820F931F7D
:1017B0000E94160A082F60913C0521E0620F08F490
:1017C0006FEFF301EE0FFF1FEA50F5408589968910
:1017D0000E946E0A7C019401A501632D742D812F56
:1017E000EB81FC810995362E472E5394182FA8CFF4
:1017F000B0E0A0E0EEEFFBE00C94572F7C01C0912D
:1018000047018EE0C89FC02D11241EE01C0F153427
:1018100008F014E40E940C0B882319F0133208F02E
:1018200012E20E940C0B811103C0C23208F4C2E222
:1018300020913C0531E0230F08F42FEF30E050E019
:1018400040E06FEF7FEF80E090E00E94B82F6901E9
:10185000D0E001E02C2FC11740F0812F0E94350B02
:10186000CDB7DEB7E8E00C94732FFE01EB54FD4FCB
:10187000808190914801892309F140910A054150E6
:10188000042E000C550B47FF1BC0C60160913C05A0
:10189000600F08F46FEF0E946E0AAC016091390589
:1018A00070913A0580913B05F70109950E94780AED
:1018B000462F282F672FCE010E940F092196CACFED
:1018C000FA01E65FFA4F818982130AC0FA01EE0F2E
:1018D000FF1FE65FFA4F818D928D8C159D05B0F24A
:1018E00041505109D0CFB0E0A0E0E9E7FCE00C9412
:1018F000552F6C01C09147018EE0C89FC02D112467
:101900001EE01C0F153408F014E40E940C0B882311
:1019100019F0133208F012E20E940C0B811103C07F
:10192000C23208F4C2E260913C05669566958091EA
:101930000605909107050E946E0AF82E80E48F0D2F
:101940000E94F70990E8B92EB80E8F2D0E94F70972
:1019500020E8A22EA80ED0E0C11740F0812F0E94EF
:10196000350BCDB7DEB7EAE00C94712FFE01EB54D6
:10197000FD4F8081909148018923A1F06091390544
:1019800070913A0580913B05EF2C0C2F2A2D4B2DA1
:10199000F60109950E94780A462F282F672FCE015D
:1019A0000E940F092196D8CFB0E0A0E0EAEDFCE05C
:1019B0000C94512F5C01C09147018EE0C89FC02D4F
:1019C00011241EE01C0F153408F014E40E940C0BC7
:1019D000882319F0133208F012E20E940C0B8111D7
:1019E00003C0C23208F4C2E260913C056695809162
:1019F0000605909107050E946E0AF82ED0E0CE01F0
:101A0000880F991F9C012F503E4F6901C11740F06C
:101A1000812F0E94350BCDB7DEB7EEE00C946D2F11
:101A2000FE01EB54FD4F808190914801892379F1AB
:101A3000F60184AD282F2057330B490185ADE82FDF
:101A4000E052FF0B3F01889C9001899C300D300DC6
:101A50001124EE9FC001EF9F900D900D1124820F75
:101A6000931F0E94160A082F6091390570913A055C
:101A700080913B05EF2C9301A401F50109950E948B
:101A8000780A462F282F672FCE010E940F09F2E017
:101A9000CF0ED11C2196BACFB0E0A0E0E2E5FDE088
:101AA0000C94562F6C01C09147018EE0C89FC02D49
:101AB00011241EE01C0F153408F014E40E940C0BD6
:101AC000882319F0133208F012E20E940C0B8111E6
:101AD00003C0C23208F4C2E260913C056695809171
:101AE0000605909107050E946E0AB82ED0E0CE013F
:101AF000880F991F9C012F503E4F7901C11740F06C
:101B0000812F0E94350BCDB7DEB7E9E00C94722F20
:101B1000FE01EB54FD4F8081909148018923C1F073
:101B2000F70125AD2052330B44AD4057550B609162
:101B3000390570913A0580913B050B2DF601099509
:101B40000E94780A462F282F672FCE010E940F0986
:101B5000F2E0EF0EF11C2196D1CFEF92FF920F939E
:101B60001F93CF93DF937C01C09147018EE0C89F04
:101B7000C02D11241EE01C0F153408F014E40E943F
:101B80000C0B882319F0133208F012E20E940C0BA0
:101B9000811103C0C23208F4C2E260913C0566952F
:101BA000669521E0620F08F46FEF80910605909131
:101BB00007050E946E0A082FD0E0C11740F0812F60
:101BC0000E94350BCDB7DEB7E6E00C94752FFE0111
:101BD000EB54FD4F808190914801892391F06091F1
:101BE000390570913A0580913B05202F4C2FF70164
:101BF00009950E94780A462F282F672FCE010E9450
:101C00000F092196DACFB0E0A0E0E9E0FEE00C9405
:101C1000552F182F80914501811323C090913805CD
:101C200093702091440130E081E09217130609F48B
:101C300080E081708093490180913D059091480139
:101C4000981739F08093480140E060E080E00E94FE
:101C50001209113288F4E12FF0E0E759FF4C0C949F
:101C6000D72F81E0E6CF80914901882389F140E0B8
:101C700060E080E00E94120980E02AC0C091470124
:101C80008EE0C89FC02D11240EE00C0F053408F023
:101C900004E40E940C0B882319F0033208F002E2DE
:101CA0000E940C0B811103C0C23208F4C2E26091A1
:101CB000390570913A0580913B050E94780AF62E0D
:101CC000E72ED82ED0E0C017D8F0802F0E94350B19
:101CD000909147019F5F9093470181110CC082E072
:101CE00080934A0180914901811105C0111103C0FF
:101CF00083E080934A01CDB7DEB7EAE00C94712F00
:101D0000FE01EB54FD4F808190914801892331F011
:101D10002D2D4F2D6E2DCE010E940F092196D3CF70
:101D2000C09147018EE0C89FC02D11240EE00C0F1A
:101D3000053408F004E40E940C0B882319F00332E8
:101D400008F002E20E940C0B811103C0C23208F4B9
:101D5000C2E2E0903A05F0903B05D09139056D2F35
:101D60007E2D8F2D0E94780AD62EC72EB82E609118
:101D70003C056D0F7E2D8F2D0E94780AF62EE72EE2
:101D8000A82ED0E0C01708F0A0CFFE01EB54FD4F05
:101D9000908180914801892359F02A2D4F2D6E2D75
:101DA00090FD03C02B2D4D2D6C2DCE010E940F09EF
:101DB0002196E8CFC09147018EE0C89FC02D112425
:101DC0000EE00C0F053408F004E40E940C0B88238D
:101DD00019F0033208F002E20E940C0B811103C0DB
:101DE000C23208F4C2E2E0903A05D0903B0520915F
:101DF0003C0550E4F52E3F2D329F312D1124F32E5A
:101E0000D0E0C01708F061CFFE01EB54FD4F808198
:101E1000909148018923B9F0FE01EE0FFF1FEF50AA
:101E2000FE4F85AD82958F70609139058F9D600D55
:101E300011247E2D8D2D0E94780A462F282F672F82
:101E4000CE010E940F092196DCCFC09147018EE0A0
:101E5000C89FC02D11240EE00C0F053408F004E4D7
:101E60000E940C0B882319F0033208F002E20E9452
:101E70000C0B811103C0C23208F4C2E2E0903A05B3
:101E8000D0903B0520913C0530E4F32E3F2D329F4E
:101E9000312D1124F32ED0E0C01708F016CFFE012B
:101EA000EB54FD4F8081909148018923D9F0FE01C8
:101EB000EE0FFF1FEF50FE4F64ADF69EB0011124F0
:101EC00095E0759567959A95E1F780913905680FCA
:101ED0007E2D8D2D0E94780A462F282F672FCE0148
:101EE0000E940F092196D8CFC09147018EE0C89F6C
:101EF000C02D11240EE00C0F053408F004E40E94FC
:101F00000C0B882319F0033208F002E20E940C0B3C
:101F1000811103C0C23208F4C2E2F0903905D091B9
:101F20003A05E0903B0560913C056695669566959F
:101F300080910605909107050E946E0A0E94F7099C
:101F4000805887FD8195880F282F3E2D239F212DB6
:101F50001124822F6F2D7D2F0E94780AF62EE72EF6
:101F6000D82ED0E0C01708F0B0CEFE01EB54FD4FE4
:101F7000808190914801892331F02D2D4F2D6E2DB8
:101F8000CE010E940F092196EDCF86EE98E00E94C7
:101F9000AD0D9ECE8CEB98E0FACF89ED99E00E94D2
:101FA0004C0D96CE8AEB99E0FACF8FE999E00E942A
:101FB000D40C8ECE83E899E0FACF8AEB98E0E7CF95
:101FC00081EB98E0E4CF88EA98E0E1CF8FE898E0F1
:101FD000DECF81E898E0EBCF86E49AE0E0CF82E7BD
:101FE00099E0DDCF8EE599E0E2CF84E598E00E94AC
:101FF000730C6ECE86E298E0FACF8FEE97E0F7CFC3
:1020000088EE97E00E94F80B63CE82EE97E0FACF5D
:1020100080910A0521E0382F321B08F430E0832F2D
:1020200069EC77E00E94450B53CE69EC77E080E0E5
:10203000F9CF80910A0521E0382F321B08F430E0F7
:10204000832F6EE877E0EECF6EE877E0F0CF8091F7
:102050000A0521E0382F321B08F430E0832F6CE5AD
:1020600077E0E0CF6CE577E0E2CF80910A0521E0F0
:10207000382F321B08F430E0832F64E477E0D2CFAE
:1020800064E477E0D4CFF894E82FE295EF70F0E0C5
:1020900031A1282F2F7081E090E001C0880F2A9590
:1020A000EAF7982F9095932391A392A1892B82A36D
:1020B000789408959091880392FF06C0282F287184
:1020C0002830F9F4877F846093FF06C0282F287199
:1020D0002831F1F4877E84612091890320FF06C0B6
:1020E000382F38713830D9F4877F816021FF06C0DE
:1020F000282F28712831D1F4877E816194FD877E55
:102100000895282F24712430F9F68B7F8860DCCF66
:10211000282F2471243101F78B7E8861DDCF382F81
:102120003171313019F78E7F8860E0CF282F21710F
:10213000213121F78E7E8861E1CF82389105B9F196
:10214000B0F48133910509F47DC048F489329105DA
:1021500009F46DC08A32910509F47BC00895853376
:10216000910509F45FC08933910509F10895833E13
:102170009105D9F138F4803E910529F1823E91050F
:1021800079F10895863E9105D9F1873E910509F4CC
:102190003EC0843E910541F52091890321FF24C072
:1021A0008091880384FD19C087EE90E00895209106
:1021B0008803237009F05AC02091890323FF14C0BB
:1021C00089E290E008952091880320FD38C0309185
:1021D000890330FF09C024FF43C090E080E00895E8
:1021E0002091880322FDF7CF08952091880322FDD6
:1021F0003AC03091890330FD39C024FFF5CFEDCFCF
:102200002091880323FFF0CF24FDE7CFCDCF20918D
:10221000880323FD2EC03091890331FFEECF84EE79
:1022200090E008952091880325FFDECFC9CF20914B
:10223000880325FD21C02091890323FFD5CF89E3A1
:1022400090E0D2CF2091880326FFCECF8AE290E0A3
:1022500008952091880326FFC7CF81E390E0089579
:1022600083EE90E0089582EE90E0089580EE90E095
:10227000089586EE90E0089585E390E00895972F05
:102280007A30B8F46630A8F48530B0F470E026E017
:10229000929F600D711D1124FB019CE3899FE00D4D
:1022A000F11D1124EE0FFF1FE753FE4F859194910E
:1022B000089580E090E0089581E0FCCF1F93CF93D4
:1022C000DF930E949D10EC01C11580E5D807F0F561
:1022D000C11580E4D80708F09CC0C03ED10520F5A8
:1022E000CD3CD10508F082C0C83AD10578F4C53A92
:1022F000D10508F073C0C130D10519F1209709F15B
:10230000C430D105F0F4D0E0C0E01BC0C33CD1051F
:10231000D0F7C85AD0E0CC0FDD1FC257DE4F09906E
:10232000D881C02DD4640DC0C11580E2D80708F053
:10233000D1C0C11581E0D80708F05AC0C83ED10508
:1023400010F7CE01DF91CF911F910895C03682E53D
:10235000D80718F5C03482E5D80708F06BC0C03242
:1023600082E5D80708F05FC0C11582E5D80708F4F8
:1023700097C02C2F2695269580E2289F9001112446
:102380008C2F8370C1E0D0E002C0CC0FDD1F8A9596
:10239000E2F7C22BD32BDD68D4CFC03A82E5D80751
:1023A00060F4C03882E5D80708F459C0CF71D0E096
:1023B000DC2FCC27C46FD06AC4CFC03C82E5D807DD
:1023C00008F462C0C03E82E5D80708F09CCFDC2F3D
:1023D000CC27CC27DF71C06FD06AB3CFC55AD0E00D
:1023E000C557DE4FC881D0E0D064ABCFD065A9CF50
:1023F0008D2F0E945A10182FCE0199270E949D10F0
:10240000C12FD0E0DC2FCC27CC27DF71C82BD92BF4
:1024100098CFCE0199270E949D10CC27DF70C82B42
:10242000D92BD06A8ECFCF71D0E0DC2FCC27C16FF3
:10243000D06A87CF2C2F26952695277080E2289F7B
:10244000900111248C2F8370C1E0D0E002C0CC0F2A
:10245000DD1F8A95E2F7C22BD32BDC6872CF2C2FBD
:1024600026952695277080E2289F900111248C2FB5
:102470008370C1E0D0E002C0CC0FDD1F8A95E2F787
:10248000C22BD32BDA685DCF8C2F8F710E945A102C
:10249000C82FD0E0DC2FCC27CC27DF71D06251CF02
:1024A0008C2F8F710E945A1055E0D695C7955A957A
:1024B000E1F7CF70D0E0DC2FCC27282F30E084FF6D
:1024C00005C044E0220F331F4A95E1F7C22BD32BFE
:1024D000D06937CF8D2F8F710E945A10182FCE01DF
:1024E00099270E949D10C12FD0E0DC2FCC27CC274C
:1024F000DF71C82BD92BD2CF8095909138039823C8
:10250000909338030895809105059091CC04981319
:1025100001C008958F5F8770FACFB0E0A0E0E3E9D3
:10252000F2E10C94562F7C010091860310918703F1
:102530008091390390913A03082B192BCFE0D0E01A
:10254000CC24C394D12CBC2EC6010C2E02C0880F03
:10255000991F0A94E2F780239123892B49F421974C
:1025600090F7B12C8B2DCDB7DEB7E9E00C94722F2C
:10257000B7018C2F0E943F110E945E11019779F3E1
:10258000F1CFCF93DF93EC010E948D12BE010E9428
:102590003F110E945E11DF91CF9108959A3078F536
:1025A000863068F5E82FF0E086E0989FE00DF11D99
:1025B00011249E2F977083E0F695E7958A95E1F7B1
:1025C000EE0FFF1FEE0FFF1FEA5FFC4F50E040E0F1
:1025D00080E0219130E0092E02C0369527950A94BB
:1025E000E2F721703327042E01C0220F0A94EAF784
:1025F000822B4F5F5F4F4430510559F7089580E0BB
:1026000008959A3098F5863088F5E82FF0E086E056
:10261000989FE00DF11D11248E2F877041E001C0BD
:10262000440F8A95EAF783E0F695E7958A95E1F7F6
:10263000EE0FFF1FEE0FFF1FEA5FFC4F30E020E0C0
:1026400070E05191DF011197CB01022E02C09695E7
:1026500087950A94E2F781708195852784238527E1
:102660008C932F5F3F4F2430310559F70895909395
:10267000870380938603089521E030E002C0220F93
:10268000331F8A95E2F720953095809186039091CB
:102690008703822393230E943713089590912D037B
:1026A0008095892380932D03282F277069F489173B
:1026B00059F09091890392FF07C08695869586957B
:1026C0000E943C1310922D03089521E030E002C0D7
:1026D000220F331F8A95E2F780918603909187033A
:1026E000822B932B0E943713089590933A03809383
:1026F00039030895FC0124812223C1F08081918156
:102700000E94C11292959F70963091F058F4925F9A
:102710009F70923058F4803F19F030F4883E30F4C6
:1027200081E008959A5FF4CF843FD1F380E008956B
:10273000883EB0F3813FD1F7F3CF829590E09C01C2
:10274000220F331F220F331F2C7C9595879595956B
:1027500087958373282B30E0C901880F991F8A7AE7
:10276000359527952575822B0895A6E0B0E0EBEB13
:10277000F3E10C945C2F49835A8349815A81992350
:10278000A1F0222391F0CA010E948D12182F682F08
:1027900089819A810E94011369817A81812F0E9427
:1027A0003F112696E3E00C94782FCA010E94CE12C6
:1027B000182FF2CF90913805937031F1811125C017
:1027C00094609093380510924A018091360581609B
:1027D000809336058091370580FF16C080913805BB
:1027E000869586951F928F9389E591E09F938F93AD
:1027F0008CE398E09F938F930E940A050F900F90AF
:102800000F900F900F900F900895813210F0906804
:10281000D8CF880F880F982BD4CF80913805869514
:102820008695815009F480E20E94DA130895809120
:102830003805869586958F5F813208F081E00E9489
:10284000DA13089520913805237059F180933905E2
:1028500060933A05493708F048E740933B052091DB
:1028600036052160209336052091370520FF19C0D9
:102870001F924F931F926F9399279F938F9389E590
:1028800091E09F938F9389E198E09F938F930E94AB
:102890000A058DB79EB70A960FB6F8949EBF0FBE75
:1028A0008DBF0895E8E3F5E0438120E1421B08F481
:1028B00040E08181628190E00E9422140895E8E363
:1028C000F5E0438120E1420F08F44FEF81816281FE
:1028D00090E00E9422140895E8E3F5E0628120E18F
:1028E000621B08F460E08181438190E00E94221421
:1028F0000895E8E3F5E0628120E1620F08F46FEFEC
:102900008181438190E00E9422140895E8E3F5E07C
:102910008181438162818850990B0E94221408951D
:10292000E8E3F5E0818190E04381628108960E94AE
:102930002214089580933C05909136059160909300
:1029400036059091370590FF12C01F928F9389E54D
:1029500091E09F938F938AEF97E09F938F930E94CC
:102960000A050F900F900F900F900F900F90089501
:1029700080913C0520E1382F321B08F430E0832F92
:102980000E949A14089580913C0520E1382F320F5F
:1029900008F43FEF832F0E949A1408959FB7F8948C
:1029A0001092B3049FBF9091C204943009F048C0C4
:1029B0002091E9002F703091EC00932F917030FD41
:1029C00090E8922B23E02093E9002091EB0020FF78
:1029D00034C02091EE0027FF30C02091B2042223A2
:1029E00021F02091E80025FF28C01092B20426E0D3
:1029F0003091E80035FF14C08093F1008091E80029
:102A000085FD27C08091E80080FFFCCF8091E80021
:102A10008E778093E8009F709093E90080E008959E
:102A20003091C204343049F43091EB0035FD05C0DB
:102A3000215041F481E08093B2049F709093E900AB
:102A40008FEF0895EFE9FFE03197F1F700C0000044
:102A5000CFCF8FB7F89421E02093B3048FBFDBCFA3
:102A60000F931F93CF93DF938B01EA019091C204E0
:102A7000943061F58093E9008FEF9091E8008150E8
:102A800095FD06C095ED9A95F1F700008111F5CFFF
:102A90008091E80085FF1AC00E945105811111C084
:102AA0008091E80085FD06C08091E8008E778093D4
:102AB000E800F2CFF80181918F018093F100219716
:102AC00079F78091E8008E778093E800DF91CF91CD
:102AD0001F910F91089543E050E0BC0182E00E94F5
:102AE00030150895CF93DF93EC0148E050E0BC012E
:102AF00081E00E94301588E0FE01A8EBB4E001906F
:102B00000D928A95E1F7DF91CF9108956E9A3EB1CB
:102B10003F7B2EB120644FB7F8948BED93E0FC011E
:102B20005191CF0168E02EB9000000C057FF3EB9B7
:102B3000550F000000C000C000C03EB900C06A953B
:102B400091F7F4E0873A9F0751F74FBF8FE594E084
:102B50000197F1F700C000000895B0E0A0E0E3EBBA
:102B6000F5E10C94522F7C015B01842E752E6901D6
:102B70008091480301E010E08A3010F40AE010E090
:102B8000C1E0D0E0B501C701F6010995982E811189
:102B900014C021960C171D07B4F48091370580FFEF
:102BA0000CC07F928F928AE694E09F938F930E944D
:102BB0000A050F900F900F900F90892DCDB7DEB7BB
:102BC000EDE00C946E2FCC9F9001CD9F300D300D19
:102BD000112490E080E045E34A95F1F7000001966A
:102BE00028173907C1F7CECF80914703811110C054
:102BF0008091D80080618093D8008AE18A95F1F7AE
:102C000000C08091D90080FF0AC081E08093470313
:102C100081E090914703913009F080E0089582E0CF
:102C2000809347030E9432051092C204F1CF0E94A4
:102C3000F415882359F0E091A904F091AA04309783
:102C400029F00190F081E02D0995089580E0089524
:102C50000F931F930E94F415882329F00E949F066A
:102C60001F910F9108950E949F0600917403109187
:102C700075032091760330917703600F711F821FD7
:102C8000931FEECFCF92DF92EF92FF926B017C0108
:102C90000E94F4158823A1F02FB7F8946091AE0438
:102CA0007091AF048091B0049091B1042FBF6C1962
:102CB0007D098E099F09FF90EF90DF90CF900895D6
:102CC0000E942816F4CF0E94281608954F925F9212
:102CD0006F927F928F929F92AF92BF92CF92DF922C
:102CE000EF92FF92CF936091D6037091D7038091BA
:102CF000D8039091D9030E9442166B017C010E9477
:102D000028164B015C018092D6039092D703A092C3
:102D1000D803B092D903A091AD03EDEAF3E08A2F76
:102D200090E04FEF5FEF60E070E04C195D096E09D5
:102D30007F09A9132AC08093AD038091DA03C0E014
:102D4000811108C080913805C82FC37019F0C82FB1
:102D5000C695C69580914A01813009F440C0882308
:102D600039F1823009F445C0833009F446C0CF916F
:102D7000FF90EF90DF90CF90BF90AF909F908F909B
:102D80007F906F905F904F900895218D328D290133
:102D9000712C612C441555056605770520F481508A
:102DA0009F5F3296C6CF2C0D3D1D328F218FF8CFFD
:102DB000109247018092060590920705A09208059F
:102DC000B092090589E2EDEAF3E0AAE0B5E00190EE
:102DD0000D928A95E1F781E080934A01C8CF8C2F4C
:102DE0000E94030ECC2319F20E940C0B0E940C0BC4
:102DF000BECF8C2F0E943707BACF8091360588232B
:102E000051F048E050E068E170E088E395E00E940E
:102E10001D3010923605609106057091070580916E
:102E20000805909109050E944216603171058105DF
:102E3000910508F49CCF10924A0199CF80913705F3
:102E400080FF08C087E297E09F938F930E940A0556
:102E50000F900F9085E38093380580914B019091FE
:102E60004C01A0914D018093390590933A05A093B0
:102E70003B058FE780933C058FEF80933D0548E04D
:102E800050E068E170E088E395E00E941D30109208
:102E900036050895AFE0B0E0E0E5F7E10C94522F7D
:102EA0008E010F5F1F4F8AE0D8011D928A95E9F7C6
:102EB00086E3C82E81E0D82EF12CE12CAA24A3941D
:102EC000B12C26E3822E21E0922EF60181916F0132
:102ED0008F3F09F442C0F894E82FE295EF70F0E0DC
:102EE00021A18F70A50102C0440F551F8A95E2F7FA
:102EF000CA01922F982B91A392A18095892382A336
:102F0000789400C0E0E3F1E0712C31E021912F3F93
:102F100009F46BC0A22FA295AF70B0E090968C918F
:102F200090E02F7002C0959587952A95E2F780FD75
:102F30005CC0832F782A330F8E169F0639F7F6016F
:102F4000319780818F3F11F00E94431050EA5A95CB
:102F5000F1F7F801EE0DFF1D70828FEFE81AF80A05
:102F600095E0E916F10409F0B0CF4AE050E0B8016D
:102F70008AE793E00E945130009741F02AE0F8017F
:102F8000AAE7B3E001900D922A95E1F7009185033D
:102F9000892B69F181E080933F030E94AB069093F7
:102FA0003E0380933D0380913D0390913E030E9438
:102FB0009006059700F110E006571C4F45E050E0E1
:102FC0006AE773E0C8010E945130C12C892B51F08F
:102FD00085E0EAE7F3E0D80101900D928A95E1F7E8
:102FE000CC24C39410923F0307C080E0A3CF80910C
:102FF0003F038111D8CFC12C0E94F415D82EE09147
:103000008503DE011B967D01882309F499C085E0C4
:103010001D928A95E9F70E2F10E006571C4FB090CD
:103020004803B9E0BB1508F447C022E33FE140E69E
:1030300051E0B701C8010E94AD15882309F45EC0B4
:1030400029ED3EE14DE651E0B701C8010E94AD1502
:10305000882309F453C02EED3DE145E751E0B70167
:10306000C8010E94AD15882309F448C02CE73DE152
:1030700040E851E0B701C8010E94AD158823F1F185
:10308000F9E0FB1508F453C01092480380918403C3
:1030900090E045E050E0B70186579C4F0E945130C8
:1030A00021E020934603892BE1F4D12C8D2D8C292E
:1030B0002F96EDE00C946E2F809140039091410388
:1030C0000E949006843F914008F0AFCF8091460364
:1030D000882359F385E0D7011D928A95E9F710926C
:1030E0004603A0918403B0E0A657BC4F85E0FE01E3
:1030F0003B9601900D928A95E1F7D8CF80914803D5
:103100008F3F31F08F5F809348038A3008F4BECF41
:103110000E94AB0690934103809340038091370552
:1031200080FFD4CF84E394E00E947104CFCF8091DC
:10313000370580FFA9CF81E294E00E947104A4CFFB
:10314000F0E0E657FC4F85E0ABE5B3E001900D926F
:103150008A95E1F765E070E08BE593E00E941B073C
:1031600080935A034091A70350E06091A60370E05A
:1031700062567C4FC7010E945E308B859C85909380
:1031800062038093610362E070E0C7010E941B0745
:10319000809360038090630390906403A090650324
:1031A000B09066038091420390914303A091440341
:1031B000B091450388169906AA06BB06D1F0809205
:1031C000420390924303A0924403B09245030E94AD
:1031D000F41581110EC00E949F06861A970AA80A4C
:1031E000B90A8092740390927503A0927603B0920C
:1031F000770388E0E7E6F3E0A8E3B5E001900D92FD
:103200008A95E1F710916F03112349F08091DA0359
:10321000811105C00E94030E80E00E9437071093C1
:10322000DA0344CF0F931F93CF93DF93809138033A
:1032300090913703892B8093FC0290913603992358
:1032400091F0892B8093FC0220E08EEF92E0FC014C
:103250003191CF0131112F5FF3E084309F07B9F72F
:1032600021111092360348E050E06EE273E08CEFDB
:1032700092E00E945130892B09F441C088E0ECEFC4
:10328000F2E0AEE2B3E001900D928A95E1F7E091B1
:10329000A904F091AA04309791F10280F381E02D06
:1032A0008CEF92E009958091370582FF28C080FF5E
:1032B00004C087EB91E00E947104D0E0C0E001EB14
:1032C00011E08091370580FF0EC0FE01E450FD4FF4
:1032D00080811F928F931F930F930E940A050F9076
:1032E0000F900F900F902196C830D10551F7809123
:1032F000370580FF04C08FEA91E00E947104DF91DE
:10330000CF911F910F91089510923803EEEFF2E0E4
:1033100086E0DF011D928A95E9F790E080E00E9447
:10332000F60690E080E00E94D106109237030E94DA
:1033300012190895AAE2B0E0E0EAF9E10C945C2FDA
:1033400084EC94E02091F100DC012D93CD01B4E0F8
:103350008C3C9B07B9F78091C504833009F470C099
:10336000B8F4813009F447C0823009F4B1C08091CB
:10337000E80083FF84C28091C4049091C5049A3010
:1033800008F07DC2E92FF0E0E657FF4C0C94D72FF0
:103390008A3009F48CC08B3009F46FC0893039F75A
:1033A0008091C404813219F78091C8049091C904B6
:1033B0000297E8F68091E800877F8093E80080918B
:1033C000E80082FF38C09091F3008091F2000297EC
:1033D00031F48091F100813011F0863021F4809138
:1033E000F1008093B7048091E8008B778093E80028
:1033F0000E948205BCCF8091C404813A09F0B7CF06
:103400008091E800877F8093E8008091C8049091C4
:10341000C904892B61F468E088EB94E070E00E94B5
:103420002E068091E8008B778093E800A0CF60E0C3
:1034300090E080E0F3CF8091C2048111C0CF97CF9C
:103440008091C404813A09F092CF8091C804909190
:10345000C904892B09F08BCF8091E800877F809386
:10346000E8008091E80080FFFCCF809146018093C6
:10347000F1008091E8008E77B9CF8091C404813249
:1034800009F075CF8091C8049091C904892B09F087
:103490006ECF8091E800877F8093E8000E948205CC
:1034A0008091C604809346010E94841960CF809168
:1034B000C404813209F05BCF8091E800877F80935C
:1034C000E8000E9482058091C7048093B6044FCF24
:1034D0008091C404813A09F04ACF8091E800877F47
:1034E0008093E8008091E80080FFFCCF8091B604D3
:1034F000BECF803899F0823809F0C1C18091C804EC
:103500008F70873008F0BBC18093E9008091EB0099
:1035100085FB882780F91092E90006C08091C004DD
:103520009091C104911182609091E800977F9093EF
:10353000E8008093F1001092F1008091E8008E770E
:103540009AC1882309F488C1823009F098C180911A
:10355000C60481118BC18091C8048F702FEF280F92
:10356000263008F08CC18093E9002091EB0020FF09
:103570007DC1933031F48091EB0080628093EB0049
:1035800075C19091EB0090619093EB0021E030E0E9
:1035900001C0220F8A95EAF72093EA001092EA0010
:1035A0008091EB008860EACF811169C11091C60457
:1035B0001F778091E3008078812B8093E3008091D6
:1035C000E800877F8093E8000E9482058091E800F0
:1035D00080FFFCCF8091E30080688093E30082E06D
:1035E000111183E08093C2044AC18058823008F0F0
:1035F00046C12091C6043091C7042C3DE3E03E074C
:10360000A1F583E08A838AE289834FB7F894DE01CB
:10361000139620E03EE051E2E32FF0E05093570094
:10362000E49120FF03C0E295EF703F5FEF708E2FB3
:1036300090E0EA30C0F0C7968D939D932F5F2431C0
:1036400059F74FBF8091E800877F8093E8006AE2D6
:1036500070E0CE0101960E942E068091E8008B77E3
:103660008093E8000CC1C096E7CF8091C804909188
:10367000C904432F55274330510509F44AC078F552
:103680004130510509F47AC08BE590E0EFE5F7E0B1
:103690004230510509F0F3C02091E800277F2093C4
:1036A000E8002091CA043091CB048217930708F4F4
:1036B0009C0140E02115310509F065C0411163C04E
:1036C0008091E80082FDC9CF8091C204882329F24D
:1036D000853019F28091E80083FFF2CFBECF4132EE
:1036E000510509F43CC04232510509F0C8C083308D
:1036F000910508F0C4C0FC01EE0FFF1FEB51FE4F17
:103700000190F081E02D8E519E4FDC018C9190E074
:103710001AC0332721303105D1F02115310561F070
:103720002230310509F0ABC0ECECF7E0E4918E2FCC
:1037300090E0ECECF7E007C0E6EFF7E0E4918E2FC5
:1037400090E0E6EFF7E0009709F499C0A5CFE6EE28
:10375000F7E0E4918E2F90E0E6EEF7E0F4CF8330CF
:10376000910508F08CC0880F991FFC01E551FE4FB0
:103770000190F081E02D89E090E08ECF82E190E031
:10378000EAEBF7E089CF8091C204882309F465CF82
:10379000853009F462CF8091E80083FD5ECF80918F
:1037A000E80082FD8DCF8091E80080FF83CF90916B
:1037B000F3008091F2002115310519F08830910550
:1037C00050F041E0089709F040E08091E8008E77E2
:1037D0008093E8006FCF44914093F10031962150DF
:1037E00031090196E8CF803809F049C08091E8009E
:1037F000877F8093E8008091C3048093F1009DCE81
:1038000081113DC01091C6041230C8F58091E800C6
:10381000877F8093E8001093C3040E9482051123E0
:1038200011F084E005C08091E30087FDFACF81E0CC
:103830008093C20442E061EC81E00E94A10542E273
:1038400061EC82E00E94A10542E261EC83E00E940B
:10385000A1058091C20413C08091C604813079F41F
:1038600081E0933009F080E08093C1041092E90078
:103870008091E800877F8093E8000E948205809114
:10388000E80083FF0AC08091E800877F8093E8000A
:103890008091EB0080628093EB00AA96E3E00C94A9
:1038A000782F0E9484192FEF84E39CE02150804000
:1038B0009040E1F700C0000088E19CE00FB6F8946A
:1038C000A895809360000FBE90936000FFCF88237F
:1038D00021F00E947C120E9412190895882339F069
:1038E00090913803982B909338030E9412190895F1
:1038F000882391F19CEF980F913A80F4EEEFF2E07B
:1039000024E033E09191891303C0DF0111971C92E9
:103910002E173F07B9F70E941219089590E2980FE9
:10392000983050F4877091E001C0990F8A95EAF7BA
:10393000892F0E947C12EFCF9BE5980F933028F4DB
:1039400090E080E00E94F6060895885A8B3120F4BA
:1039500090E080E00E94D1060895CF93C82F88237D
:10396000B1F08CEF8C0F813A00F5EEEFF2E084E0DD
:1039700093E0DF012D91C21761F08A179B07D1F701
:103980006C2F8CEF92E00E94B7060E941219CF9123
:1039900008952191C21303C0DF0111971C928E1765
:1039A0009F07B9F70E941219EBCF80E28C0F883085
:1039B00068F4C77021E030E001C0220FCA95EAF731
:1039C00080913803822B80933803DFCFEBE5EC0F37
:1039D000E33040F4F0E0E557FE4F808190E00E9434
:1039E000F606D5CFC85ACB3190F6EC2FF0E0EE0FAB
:1039F000FF1FE257FE4F808191810E94D106C7CF01
:103A0000CF93C82F0E94AD1C8C2F0E94781CCF91A1
:103A100008950F931F93CF93DF93C62FD42F022FB8
:103A2000FC0185818823A9F0609335050E94AB06CF
:103A30009093340580933305C77081E001C0880FEF
:103A4000CA95EAF70E946E1CDF91CF911F910F91EA
:103A5000089580913505681332C0809133059091A7
:103A600034050E949006883C910548F510E21D0F30
:103A7000CD17B9F080E28C0F883040F4C77081E038
:103A800001C0880FCA95EAF70E94671C183048F4F5
:103A900081E09D2F977001C0880F9A95EAF70E94E8
:103AA0006E1C802F0E94001D183070F6D77081E0C8
:103AB00001C0880FDA95EAF70E94671CC5CFC7706E
:103AC00081E001C0880FCA95EAF7F6CF811108C0DE
:103AD00089EA611101C08AEA0E94001D80E0089510
:103AE000813029F48EE46111F7CF8BE4F5CF823079
:103AF00079F3833099F7F6CFA9E0B0E0E2E8FDE191
:103B00000C945B2F88E0E8E3F5E0DE01119601906C
:103B10000D928A95E1F78091DA03898749E050E0B8
:103B200067E673E0CE0101960E9451300091700368
:103B3000109171032091720330917303EFB7F894E1
:103B40004091AE045091AF046091B0047091B10403
:103B5000EFBF401B510B620B730B443651056105DF
:103B6000710518F411E0892B21F1809129019091C0
:103B70002A01865A9C4F4091280150E04A30510555
:103B800010F049E050E0BE016F5F7F4F0E945E3051
:103B900085E090E00E94D72E182F882351F00E94D4
:103BA0009F066093700370937103809372039093E8
:103BB0007303812F2996E4E00C94772FA4E0B0E002
:103BC000E4EEFDE10C945C2F4091560350915703B5
:103BD00060915803709159032FB7F8948091AE0407
:103BE0009091AF04A091B004B091B1042FBF841B99
:103BF000950BA60BB70B11E084369105A105B10515
:103C000070F10E9428166E5F7F4F8F4F9F4F698320
:103C10007A838B839C838091210190912201865A23
:103C20009C4F4091200150E04530510510F044E098
:103C300050E0BE016F5F7F4F0E945E3084E090E0F5
:103C40000E94D72E182F882351F00E949F06609360
:103C50005603709357038093580390935903812F11
:103C60002496E3E00C94782F4F925F927F928F928C
:103C70009F92AF92BF92CF92DF92EF92FF920F93FB
:103C80001F93CF93DF930F92CDB7DEB7C62E4A01B5
:103C90005901482E880F5508C2010E94D72E782E50
:103CA000882309F480C0C20133E0880F991F3A9538
:103CB000E1F7FC01E050FF4F438150E04115510511
:103CC00011F041E050E080509F4FFC01648175810C
:103CD000665A7C4FCE0101960E945E30F40140810D
:103CE0005181628173812FB7F8948091AE049091D5
:103CF000AF04A091B004B091B1042FBF841B950B09
:103D0000A60BB70B84369105A105B10540F4B701A8
:103D1000C8010E941B079981891709F444C00C2C23
:103D2000000CDD08C6010E94D72E782E811113C029
:103D3000712C872D0F90DF91CF911F910F91FF90E4
:103D4000EF90DF90CF90BF90AF909F908F907F903B
:103D50005F904F900895C60123E0880F991F2A9520
:103D6000E1F7FC01E050FF4F438150E0E416F50617
:103D700008F4A70180509F4FFC0164817581665A49
:103D80007C4FC5010E945E30B701C8010E941B072D
:103D900099818913CDCF0E949F06F40160837183BE
:103DA00082839383C6CFA701B801C5010E945E300C
:103DB000C0CFA2E0B0E0EFEDFEE10C94562F82E020
:103DC000E82EF12C01E613E09E012F5F3F4F42E504
:103DD00053E063E082E00E94341EC82E882339F14C
:103DE00000E080E01DC0D0907903D00E2D2D30E092
:103DF000A90142565C4F7A01E1E0F0E0EC0FFD1FB3
:103E0000E00FF11D1081FA019081191BB12E1B14D6
:103E10009CF0912F17FD90E0191B111118C00F5F36
:103E2000909178030917F8F281110E9463168C2D86
:103E30002296E9E00C94722FBA94F70180818F5F8B
:103E4000808360E08D2D0E94661D8C2DE0CF1F5F6A
:103E5000F70180818150808361E08D2D0E94661D75
:103E60008C2DDBCFA5E0B0E0E8E3FFE10C94572F09
:103E70006B0185E0E82EF12C0BE513E09E012F5F2E
:103E80003F4F4EE453E061E080E00E94341E8823FF
:103E900049F095E0FE013196A9E4B3E001900D925E
:103EA0009A95E1F795E0E9E4F3E0D60101900D92EF
:103EB0009A95E1F72596E8E00C94732FA8E0B0E01E
:103EC000E4E6FFE10C945D2F66EE7EEF90E080E08B
:103ED0000E944B3060E082E090E00E942D3060E074
:103EE00083E090E00E942D3010923A031092390343
:103EF00060E074E184E090E00E944B3060E086E096
:103F000090E00E942D306FEF87E090E00E942D300E
:103F100040E050E0BA0188E090E00E943F3060E06D
:103F200084E290E00E942D3060E087E190E00E9402
:103F30002D3060E08CE090E00E942D3060E08DE05C
:103F400090E00E942D3019821A821B821C821D82F1
:103F50001E821F82188648E050E068E170E0CE01C2
:103F600001960E941D3040E050E0BA0180E290E0EE
:103F70000E943F3040E050E0BA018FE090E00E94A4
:103F80003F3040E050E0BA0183E190E00E943F30D2
:103F90002896E2E00C94792FCF93C82F8091890363
:103FA00082FB992790F99C17F9F0C0FB82F9809366
:103FB0008903609188037091890384E090E00E94F6
:103FC0004B3082E00E944E138091370580FF0CC079
:103FD0001F92CF938AE991E09F938F930E940A05E5
:103FE0000F900F900F900F90CF910895B0E0A0E048
:103FF000ECEFFFE10C94552F8C01FC0184818823A8
:1040000041F121E0408151816281738195810E945B
:10401000B513EC01FC01E851FC47E730F105A8F5C8
:10402000EC56FF4C0C94D72F26E241EE61EEC8010E
:104030000E94091D80912D03877059F0F801858138
:10404000882339F08091890382FF03C082E00E94B7
:104050004E13CDB7DEB7EAE00C94712F27E245EEA0
:1040600065EEE5CF26E241EE60EEE1CF27E245EED8
:1040700064EEDDCF26E241EE62EED9CF27E245EED7
:1040800066EED5CF28E241E0EBCFF80185818823A9
:1040900009F4DBC310923505CE019057839708F0E1
:1040A000BEC384E090E00E94173090938903809310
:1040B0008803FE01E150F047E232F10520F4E556B5
:1040C000FF4C0C94D72F80918803816080938803E4
:1040D00095C0809189038860809389038FC0809107
:1040E00088038260F3CF809188038460EFCF809152
:1040F00088038860EBCF809189038160EDCF809148
:1041000089038260E9CF809188038061DFCF80914D
:1041100088038062DBCF809188038064D7CF0E94C0
:104120008419809188038068D1CF809188038C6046
:10413000CDCF809189038360CFCF809188038E7F1C
:10414000C5CF80918903877FC7CF809188038D7FFA
:10415000BDCF809188038B7FB9CF80918803877F03
:10416000B5CF809189038E7FB7CF809189038D7FF2
:10417000B3CF809188038F7EA9CF809188038F7DF4
:10418000A5CF809188038F7BA1CF0E948419809155
:1041900088038F779BCF80918803837F97CF80910F
:1041A00089038C7F99CF8091880382FB992790F9AE
:1041B00021E0922790FB82F990FB83F987CF8091D1
:1041C0008903982F909591708E7F892B90FB81F9B0
:1041D00083CF90918803892F8F7B96FF806476CF61
:1041E0000E94841990918803892F97FB87F9805842
:1041F0006DCF61E08EE090E00E942D3060918803E9
:104200007091890384E090E00E944B300E948419F1
:1042100011CF60E0EFCF90918803892F8F7E94FFBC
:10422000806154CF90918803892F8E7F90FF8160A9
:104230004DCF90918903892F877F93FF88604CCF62
:1042400085E30DC380913805982F937021E0922764
:104250008C7F892B8093380510924A018091360516
:104260008160809336058091370580FFE3CE1F92F1
:104270009F9389E591E09F938F9380E491E09F93D2
:104280008F930E940A050F900F900F900F900F9040
:104290000F90D0CE4DE054E167E174E10E94310708
:1042A000C9CE47E154E16DE074E1F8CF46E854E14E
:1042B00060E974E1F3CF40E954E166E874E1EECFE0
:1042C0004CE654E169E774E1E9CF49E754E16CE673
:1042D00074E1E4CF42E554E16FE574E1DFCF4FE5EF
:1042E00054E162E574E1DACF48EB54E163EC74E148
:1042F000D5CF43EC54E168EB74E1D0CF81E00E946C
:10430000DA1398CE85E0FBCF8DE0F9CF82E1F7CFCD
:1043100090913705892F8E7F90FF816080933705BC
:1043200080FF05C089E891E00E94710483CE87E791
:1043300091E0FACF6FEF7FEF90E080E00E944B308A
:104340000E94511C8091890382FB882780F991E0AB
:1043500089270E94CC1FF8018581C081D1818823E3
:1043600009F44AC0CE010E948D12F82E682FCE01AA
:104370000E940113BE018F2D0E943F110E945E1109
:10438000D82FC92FA82EF801C580B680B2943FE07F
:10439000B32280912D038770F1F0EC2CCC20E1F05A
:1043A000892F807F803451F080E28D0F883098F023
:1043B000B11004C0892F807E803269F0809189031A
:1043C00082FF09C082E00E944E1380912D03877006
:1043D000EE24E3948111E12CDC2ED2942FE0D22242
:1043E000FBE0FD1508F46DC0ED2DF0E0E354FF4C4B
:1043F0000C94D72F80E0ADCFCE010E94CE12F82EC4
:10440000B9CF2C2F2F70F22EC07F19F0F29490EFBD
:10441000F922CC20B9F0FF2069F080E28D0F8830BE
:1044200010F0A11009C080913803F82AF0923803E7
:104430000E9412198D2F43C080913703F82AF09201
:104440003703F6CF8D2F0E94781CFF20D1F1D05E6C
:10445000D83010F0A11004C08F2D0E947C1206C02D
:10446000F09480913703F822F09237030E941219DA
:1044700028C03C2F3F70F32EC07FC03219F0F29459
:1044800080EFF822AA2059F081E0A81609F479C03B
:10449000CC2009F485C0BB2009F447C0CBCF809164
:1044A000890382FD3EC0CC20B1F1FF2039F080911C
:1044B0003803F82AF09238030E94121980E00E9413
:1044C000AD1C2D2D2850330B2430310510F40E94E3
:1044D0001716EE20A9F080912D0380FD11C0F80180
:1044E00015828695869586950E946513C8010E945F
:1044F000F61F80912D038695869586950E943C1324
:1045000020E0F8014081518162817381848195812D
:104510000E94B5139ECD80E00E94781CFF2089F296
:104520009BCFCC20A1F0B11004C08F2D0E946E1C37
:10453000C8CF91E0B912C5CF809136039F2D982343
:10454000F91609F4BECFF82AF0923603BACFB110AB
:10455000B8CF8F2D0E94671C909136038F2D892331
:1045600029F08F2D80958923809336038091050350
:104570009F2D982309F4A5CFF094F822F09205031B
:10458000A0CFCC2029F0E5E0EB1508F49ACFCDCFF1
:10459000F4E0FB1508F495CF8F2D0E94671C91CF96
:1045A000BB20D1F329E3A21209C03FEF87EE93E0CD
:1045B000315080409040E1F700C000008D2F0E94F4
:1045C000781C7FCF8C2F86958695837069F081301B
:1045D00009F077CF8D2F9C2F9370C11002C080E01F
:1045E00090E00E94D1066DCF8D2F9C2F9370C1104B
:1045F00002C080E090E00E94F60663CF8C2F8370AB
:1046000009F03FC0C1105DCF4D2F429546954770D0
:10461000440F440F2D2F2F7030E0042E02C0220FC4
:10462000331F0A94E2F790E080E0D4FF09C08FE0E6
:1046300090E002C0880F991F4A95E2F78095909507
:10464000C695C695C370C23099F078F4409139038D
:1046500050913A03C13039F0822B932B8423952358
:104660000E9475132ECF242B352B822B932BF8CF42
:10467000822B932B2091390330913A038227932781
:10468000EFCF8695CC2011F08C2F8170882309F410
:1046900018CF4D2F429546954770440F440F2D2F4C
:1046A0002F7030E0042E02C0220F331F0A94E2F76D
:1046B00090E080E0D4FF09C08FE090E002C0880F56
:1046C000991F4A95E2F780959095C695C695C37057
:1046D000C23099F078F44091860350918703C1303D
:1046E00039F0822B932B842395230E943713E9CE34
:1046F000242B352B822B932BF8CF822B932B2091BD
:1047000086033091870382279327EFCFCF70CC2089
:1047100029F08C2F0E9465138D2F08CF8D2F0E94BA
:10472000671C8C2F0E943C13CCCE8D2FE2EFAE166F
:1047300099F1EA1570F0F0EFAF16D1F021EFA21663
:1047400091F0CC2009F45BC0B11074CE8C2F8F7126
:1047500027C033EFA31639F194EFA912F2CF80915D
:10476000890382FD2EC08C2F8F71CC20D9F218C006
:10477000CC2069F0E4E0EB1508F4A3CECF7181E022
:1047800090E002C0880F991FCA95E2F7B8CFF5E014
:10479000FB1508F496CEF2CF8C2F8F71C110C2CFCB
:1047A0000E9465138ECE90E080E0CC2009F49DCF6E
:1047B000CF7181E090E002C0880F991FCA95E2F79F
:1047C00094CFCC2089F0CF718C2F0E9465138091FB
:1047D000890382FF07C028E0C29FC00111248360C3
:1047E00080932D038C2FDCCF81E00E944E1331E0AB
:1047F0003B1508F066CE82E00E944E1362CEBB20CD
:1048000059F0893309F0DACE8FEF97EEE3E081506B
:104810009040E040E1F7D0CE8C2F8F7183CFC6312E
:10482000FCE7DF0751F5809138038A7A91E009F4BB
:1048300090E09093040369E2811165E38CEF92E0CC
:104840000E94B7060E941219F5CBC6312CE7D20799
:1048500009F064C0809104038111F2CC89E2EEEF8B
:10486000F2E024E033E09191891303C0DF01119756
:104870001C922E173F07B9F7E5CFC3303CE7D307AB
:1048800009F458CD08F03AC0C1309CE7D90709F4C3
:1048900057CD08F03DCDC115DC4709F05CCD0E9435
:1048A0008419FFEF24E33CE0F15020403040E1F771
:1048B00000C0000081E08093E00080E28093D80097
:1048C0001092C9008FE19EE40197F1F700C000004B
:1048D00087E090EBDC018093400590934105A09325
:1048E0004205B093430588E19CE00FB6F894A89583
:1048F000809360000FBE90936000FFCFCB352CE714
:10490000D20709F477CDCC353CE7D30709F41ACDAB
:10491000CA35DC4709F01FCD81E01BCD80913803FB
:104920008272FE01E052F847E531F10508F013CD3F
:10493000E753FF4C0C94D72FCF93DF9380912C0338
:10494000807F09F04DC080912B03882309F448C073
:10495000E09105055091CC04C0912703D091260326
:10496000609128037091290347E05E17C9F18E2FEB
:1049700090E0E49FF0011124E353FB4F24812223B4
:1049800091F1489FF001499FF00D1124DF01A353DD
:10499000BB4F11962C9111972C1325C02C912D13E0
:1049A00022C015962C91159721111DC012962D919C
:1049B0003C91261B370B283C3105A8F480912C0331
:1049C0008F70806180932C03ED52FB4F80818F703C
:1049D0008061808386E293E00E94F61F0E9483122A
:1049E000DF91CF910895FC013196E770BECFA4E12D
:1049F000B0E0EDEFF4E20C94532F8C0186E0F80167
:104A0000DE011F9601900D928A95E1F7F8018481ED
:104A1000E58096E2A92E93E0B92E90912A03911198
:104A200028C0882319F1EE20F1F0C8010E947A1302
:104A3000F82E8823C1F087E0F801D50101900D928E
:104A40008A95E1F780912A03813031F48091260321
:104A5000909127030E94C1120E949C248F2D64967E
:104A6000ECE00C946F2FC8010E94F61FFF24F39412
:104A7000F5CFD080C18082809380F0902B0320916D
:104A8000280330912903A401421B530BFF2009F492
:104A9000D9C0483C510508F092C08823F9F29091A2
:104AA000270380912C03282F207F09F056C0C912BC
:104AB00014C090912603D91210C0E11048C08F7025
:104AC000806180932C0386E293E00E94F61F809120
:104AD0002C03F8018683F12CC1CFE11038C06C2D76
:104AE0008D2D0E9413056C2D8D2D0E941305E82E2F
:104AF0008111F1CFDF86C88A8F8598890E94C11203
:104B0000292F22952F70243058F49F70223088F07E
:104B1000992399F0F8019681907F79F4FE2C9ECF2D
:104B20002A5F2F70223068F0C8010E94F61FEF2C18
:104B3000F5CF992311F0882389F3805E883070F3D4
:104B4000F3CF803F58F3815F833070F7E7CF8091D8
:104B50002C03816080932C03BECFC91207C09091B3
:104B60002603D91203C0EE2009F48DC0C8010E94AB
:104B70007A13882309F477CFEE2009F474CF80915B
:104B80002C03803288F02091260330912703398747
:104B900028879B868A8690912A039C871D868E870C
:104BA000CE0108960E94F61F87E0F801A6E2B3E066
:104BB00001900D928A95E1F70E949C2457CF909125
:104BC0002C03292F207F51F486E293E00E94F61FE8
:104BD00087E0F50111928A95E9F77DCF882309F4E2
:104BE0003DCF809127038C1110C080912603D812ED
:104BF0000CC0E1100AC09683C8010E94F61F87E02E
:104C0000F50111928A95E9F729CFC8010E947A131C
:104C1000882309F428CFEE2009F425CF80912C03B6
:104C2000803210F220912603309127033A832983A2
:104C30009C828B8290912A039D831E828F83CE015A
:104C40000196B0CF483C5105D0F6882309F40ECF29
:104C5000FE2CEE2009F407CF809127038C1120C091
:104C600080912603D8121CC080912C0380FD0FC0B8
:104C7000982F907F61F08683903F31F0982F907F3E
:104C8000905F8F70892B8683C8010E94F61F87E092
:104C9000F801A6E2B3E001900D928A95E1F7DECE2D
:104CA000C8010E947A1381117FCF80912C0381600B
:104CB00080932C03C8010E94F61FD0CEABE1B0E078
:104CC000E4E6F6E20C945B2F4E8B5F8B688F798F56
:104CD0008A8F9B8F192F9111109237031D8A86E0BE
:104CE000FE017696DE011F9601900D928A95E1F7FE
:104CF0000A8D002341F021E04F85588969897A891E
:104D0000C8010E94B5130B8B1C8B87E0FE013F96F8
:104D1000DE01189601900D928A95E1F7CE01089672
:104D20000E94F72481112AC087E0FE013896DE0137
:104D3000119601900D928A95E1F78C858823F1F008
:104D40002091CC0430E0C9010196877099274091E9
:104D5000050548171906E9F097E0929FD001939F47
:104D6000B00D1124A353BB4FFE01319601900D925B
:104D70009A95E1F78093CC040E94831217E080910A
:104D800005059091CC04891312C06B96E4E00C9455
:104D9000772F0E9484191092CC041092050587E0A9
:104DA000E6E2F3E0DF011D928A95E9F7E7CF819F04
:104DB000C001112483539B4F0E94F724882329F3B9
:104DC0008091050590E001968770992780930505ED
:104DD000D6CFA6E0B0E0EFEEF6E20C945B2F0E9497
:104DE000AB068C0180913B0390913C0380179107A7
:104DF00081F019821A820E94AB06682F49815A817C
:104E0000792F80E090E00E945E2610933C0300938F
:104E10003B032696E4E00C94772F1F920F920FB677
:104E20000F9211242F933F934F935F936F937F9330
:104E30008F939F93AF93BF93CF93DF93EF93FF93A2
:104E4000D091E900DF708091EC00C82FC17080FD27
:104E5000C0E81092E9008091F000877F8093F00015
:104E600078940E949A191092E9008091F00088606D
:104E70008093F000CD2BCF70C093E900FF91EF91AC
:104E8000DF91CF91BF91AF919F918F917F916F9162
:104E90005F914F913F912F910F900FBE0F901F90F8
:104EA00018951F920F920FB60F9211242F933F93D4
:104EB0004F935F936F937F938F939F93AF93BF9322
:104EC000EF93FF938091E10082FF15C08091E20093
:104ED00082FF11C08091E1008B7F8093E1002091DF
:104EE000B4042F5F822F62E30E94842F992309F478
:104EF000C0C02093B4048091DA0080FF28C0809164
:104F0000D80080FF24C08091DA008E7F8093DA0081
:104F10008091D90080FFE3C080E189BD82E189BD35
:104F200009B400FEFDCF81E08093C2048BE497E0DA
:104F30000E9471048091B504811109C00E9432055C
:104F40000E94D3058091E20084608093E20080910A
:104F5000E10080FF1BC08091E20080FF17C08091BC
:104F6000E2008E7F8093E2008091E2008061809376
:104F7000E2008091D80080628093D80019BC85E05F
:104F80008093C20483E597E00E9471048091E10060
:104F900084FF2FC08091E20084FF2BC080E189BD97
:104FA00082E189BD89B5982F917080FFFBCF8091F8
:104FB000D8008F7D8093D8008091E1008F7E809310
:104FC000E1008091E2008F7E8093E2008091E20018
:104FD00081608093E2008091C304882309F489C032
:104FE00084E08093C20487E597E00E947104809179
:104FF000C2048091E10083FF2BC08091E20083FF17
:1050000027C08091E100877F8093E10082E0809358
:10501000C2041092C3048091E1008E7F8093E1006E
:105020008091E2008E7F8093E2008091E2008061B7
:105030008093E20042E060E080E00E94A105809160
:10504000F00088608093F0008BE597E00E94710487
:10505000FF91EF91BF91AF919F918F917F916F9150
:105060005F914F913F912F910F900FBE0F901F9026
:1050700018951092B4048091B304882309F43BCFAF
:105080008091C2048430C1F49091E9009F70209116
:10509000EC00822F817020FD80E8892B93E09093B3
:1050A000E9009091EB0090FF04C09091EE0097FD15
:1050B00008C08F708093E9001092B3041CCF109247
:1050C000F1009091E80095FDFACF9091E80090FFF3
:1050D000F0CF9091E8009E779093E800EACF19BC5A
:1050E0001092C2048FE497E00E9471041092B504FC
:1050F0002ECF8091E30087FD93E09093C20473CF9D
:1051000078941F921FB61F9211248F939F93AF9391
:10511000BF938091AE049091AF04A091B004B09180
:10512000B1040196A11DB11D8093AE049093AF040C
:10513000A093B004B093B104BF91AF919F918F91B0
:105140001F901FBE1F9018951F921FB61F9211240B
:105150008F939F93AF93BF938091AD04811113C040
:105160008091AE049091AF04A091B004B091B104CD
:105170004196A11DB11D8093AE049093AF04A093FE
:10518000B004B093B104BF91AF919F918F911F90E4
:105190001FBE1F901895CDB7DEB72F970FB6F894A6
:1051A000DEBF0FBECDBF85B7806885BF85B780687D
:1051B00085BF84B7877F84BF0FB6F894A895809188
:1051C0006000886180936000109260000FBE80E8EC
:1051D00090E00FB6F89480936100909361000FBE49
:1051E0008EEC94E19093FB028093FA020E943205C8
:1051F0000E94D3058091E20084608093E20078945D
:105200008091C2048823A1F01091E9001F70909151
:10521000EC00892F817090FD80E8182B1092E90036
:105220008091E80083FD0E949A191F701093E90095
:1052300082E084BD93E095BD9AEF97BD80936E00A8
:1052400010927403109275031092760310927703F4
:1052500055985D988FE891E00197F1F700C0000044
:105260000E940C0B80933B010E94F41581110E9457
:10527000EB2D80913B0192E0811190E09093A60389
:1052800082E0A82FA91BA093790390913B01809302
:10529000A70390913B018093780338EDA32E31E072
:1052A000B32E46ED51E08A01950161E070E0F9010D
:1052B00081919F01E82FE295EF70F0E0D1A08F700F
:1052C0007B0101C0EE0C8A95EAF79E2D90959D21F9
:1052D00091A382A18E2982A3D8018D918D01E82FFF
:1052E000E295EF70F0E0D1A08F707B0101C0EE0C71
:1052F0008A95EAF79E2D90959D2191A382A18E29F2
:1053000082A3B1E02A3D3B0791F6EFE8F1E0319747
:10531000F1F700C000001091A70368EA73E0FB01F9
:105320008E2F861B811708F46BC280913B0181117F
:105330002CC085E0EEE4F1E0DE01179601900D92BD
:105340008A95E1F78F8180933601888580933701B4
:105350008985809338018A85809339018B85809374
:105360003A0186E0E3E5F1E0DE01119601900D924D
:105370008A95E1F7FE013196A0E3B1E0CE010796F0
:1053800021912D93E817F907D9F780913B0195E01A
:10539000811190E09093850385E0891B80938403BD
:1053A00006E311E02BE3E22E21E0F22EF8018191D9
:1053B0008F018F3F11F00E944310E016F106B1F704
:1053C00000E311E0D8018D918D018F3F11F00E9413
:1053D0004310B1E006331B07A9F78AE0EAE8F3E0DF
:1053E000DF01282F1D922A95E9F7EAE7F3E0DF01B4
:1053F0001D928A95E9F790E080E00E941730863E82
:105400009E4F11F00E945E1F82E090E00E940F30DC
:10541000182F8093370584E090E00E941730909316
:1054200089038093880383E090E00E940F3090E02E
:105430000E94751310920A058FEF9FEF9093240539
:105440008093230590932605809325059093280546
:105450008093270590932A058093290590932C0526
:1054600080932B0590932E0580932D059093300506
:1054700080932F0590933205809331051092AD03F0
:105480009093C7038093C6039093C9038093C80386
:105490009093CB038093CA039093CD038093CC0366
:1054A0009093CF038093CE039093D1038093D00346
:1054B0009093D3038093D2039093D5038093D40326
:1054C00090E080E00E941730863E9E4F71F010FF02
:1054D00008C081EC95E09F938F930E940A050F907E
:1054E0000F900E945E1F0E941E1781E08093360578
:1054F00048E050E068E170E088E395E00E94FF2F0B
:1055000010923605809138058C7F71F480913705B3
:1055100080FF08C08CE695E09F938F930E940A0558
:105520000F900F900E941E178091370580FF89C051
:1055300082E595E09F938F930E940A05809137053D
:105540000F900F9080FF7DC08091380583701F926F
:105550008F9383E395E09F938F930E940A05809138
:1055600037050F900F900F900F9080FF6AC08091C9
:105570003805869586951F928F9386E195E09F93D7
:105580008F930E940A05809137050F900F900F901E
:105590000F9080FF56C0809139051F928F9388EF3E
:1055A00094E09F938F930E940A05809137050F9096
:1055B0000F900F900F9080FF44C080913A051F928A
:1055C0008F938AED94E09F938F930E940A058091B8
:1055D00037050F900F900F900F9080FF32C0809191
:1055E0003B051F928F938CEB94E09F938F930E94C7
:1055F0000A05809137050F900F900F900F9080FF54
:1056000020C080913C051F928F938EE994E09F9378
:105610008F930E940A05809137050F900F900F908D
:105620000F9080FF0EC080913D051F928F9380E800
:1056300094E09F938F930E940A050F900F900F9014
:105640000F900E94F415811102C00E94EE2D8CE390
:1056500091E09093AA048093A9048091C2048530BC
:10566000A9F483EF95E00E94710490E4F92EEE24F2
:10567000E39400E112E18091C204853009F4E9C0AD
:105680000E9484190E9417161092DA030E944A178A
:1056900084E9282E83E0382EAAE8B3E0BD87AC87E2
:1056A000F10191918D912EE933E02E173F0709F416
:1056B00017C19817B1F38091370581FD52C10E943F
:1056C000F4158F8701EF802E01E0902EE12CAC8540
:1056D000BD85DD90BD87AC87F10161901F016D1420
:1056E00009F484C02401C12C772473946D24862D81
:1056F000872109F470C0F72CFD20FF85FF23A1F05E
:10570000C982EA820E94AB069C838B8321E02D83B1
:1057100091E0F11001C090E09E8349815A816B8134
:105720007C818D810E945E26FF2041F0D2018C9108
:10573000F12C8F3F19F08E87FF24F3940F2D10E08A
:105740008091AD03800F912F911D09976CF1E8E0D6
:10575000AE2EB12CA01AB10AB80162557C4FA5013A
:105760008EEA93E00E945E30B8016A547C4FA50136
:1057700086EB93E00E945E30A501440F551FB801EF
:10578000660F771F6A537C4F86EC93E00E945E3071
:10579000B80162547C4FA5018EEB93E00E945E300D
:1057A00088E08F198093AD038091AD0390E0EE8582
:1057B000AE2FB0E09D01220F331F235D3D4FAA0F96
:1057C000BB1FBD01625D7D4F41E0480F9F1508F48E
:1057D000FEC08093AD03C394770CEFEF4E1A5E0AC0
:1057E000F6E0CF1284CFF1013197D082E39426E026
:1057F000820E911C3AE0E3126ACF0E94281674C010
:10580000D5012D915D01822F82958F7090E0DC0192
:1058100090968C9190E02F7002C0959587952A956F
:10582000E2F78170DA019D91AD01292F22952F7049
:1058300030E0D90190962C9130E09F7002C03595F0
:1058400027959A95E2F790E020FD92E0892B8193CD
:1058500067CD8091C204843009F430C00E9466167E
:105860008091DA03811105C00E94030E80E00E943E
:105870003707E092DA031092AD0428E130E00FB66A
:10588000F894A895209360000FBEF092600083B753
:10589000817F846083BF83B7816083BF789488955C
:1058A00083B78E7F83BF0FB6F894A8958091600070
:1058B000886180936000109260000FBE8091C104E7
:1058C000882309F4D8CE0E944A17EAE8F3E08191D0
:1058D000811113C184E993E08E179F07C1F7CBCEE6
:1058E0009813E9CE0E94E9260E94F4150E946616DC
:1058F000D12CC12C8091A703D81608F47EC0C1100A
:105900000E9463160E941716182F8091AC03181777
:1059100009F4A3CE1093AC030E949F068091370533
:1059200082FF9BCE80FF99CE8CE196E00E947104AD
:105930008091370580FF91CE1F921F9387E196E0FB
:105940009F938F930E940A05809137050F900F90C7
:105950000F900F9080FF81CE85E196E00E94710448
:105960007CCE86E096E00E947104BAE8EB2EB3E0AC
:10597000FB2EB12CA12C11E0C12E16E0D12E09EF87
:1059800015E0BF92AF92DF92CF920E940A058EEF90
:1059900095E00E947104D7018D917D010E949D13B5
:1059A0001F928F931F930F930E940A0587EF95E034
:1059B0000E947104BFEFAB1ABB0A0FB6F894DEBFAA
:1059C0000FBECDBFFAE0AF16B104D9F678CE90E0A5
:1059D000FC01E355FC4FD9015C915183DB015C91E3
:1059E0005187BE85B18B880F991FFC01E355FC4F91
:1059F000128E118E91E0842FE7CE0D2D10E0F8016C
:105A0000E852FE4F8081E82FE295EF70F0E0E0A1D0
:105A1000F0E08F7002C0F595E7958A95E2F7E170A6
:105A2000D801AA52BE4F2C91A22FA295AF70B0E020
:105A300090968C9190E02F7002C0959587952A954D
:105A4000E2F780FD52C080E08E2BD801A855BC4FF4
:105A5000EC919E2F9370891709F445C0EE0FEE0F5D
:105A6000E82BEC93E090A603ED0CEF70F0E0EA5326
:105A7000FE4F0E551C4F8081D8019C91890F8C934D
:105A8000F12C843084F0EE2DF0E0E256FC4F808162
:105A90008F5F80830E94F415F82E882341F160E027
:105AA0008E2D0E94661DF80180818D3F84F4EE2DBD
:105AB000F0E0E256FC4F8081815080830E94F41513
:105AC000F82E8823B9F061E08E2D0E94661DD80162
:105AD0008C91082E000C990B64E070E00E94A42FBA
